:100000000C9472000C9495000C9495000C9495003F
:100010000C9495000C9495000C9495000C9495000C
:100020000C9495000C9495000C9495000C949500FC
:100030000C9495000C9495000C9495000C949500EC
:100040000C9495000C9495000C9495000C949500DC
:100050000C9495000C9495000C9495000C949500CC
:100060000C9495000C9495000C9495000C949500BC
:100070000C9495000C9495000C9495000C949500AC
:100080000C9495000C9495000C9495000C9495009C
:100090000C9495000C9495000C9495000C9495008C
:1000A0000C9495000C9495000C9495000C9495007C
:1000B0000C9495000C9495000C9495000C9495006C
:1000C0000C9495000C9495000C9495000C9495005C
:1000D0000C9495000C9495000C9495000C9495004C
:1000E0000C94950011241FBECFEFD1E2DEBFCDBF2F
:1000F00000E00CBF13E0A0E0B2E0E8E0F7E300E0CE
:100100000BBF02C007900D92A234B107D9F723E0CC
:10011000A2E4B3E001C01D92A334B207E1F70E944C
:1001200093000C94821B0E947F030C9400008F921A
:100130009F92AF92BF92CF92DF92EF92FF920F9376
:100140001F937C018B0128EE33E040E050E04A0130
:100150000E941F1B69015A01B601C5010E94F602E7
:100160008091C00080728030D9F38EE28093C60007
:1001700028EE33E0B601C5016401A6010E94481BC8
:10018000061B170BE80AF90A81E004361105EC0496
:10019000FD0408F4812D81708030D1F48091C0007D
:1001A00080728030D9F380E38093C60081E00A300A
:1001B0001105E804F90408F4812D8170803041F4C0
:1001C0008091C00080728030D9F380E38093C600B4
:1001D000B801C7010E94F6021F910F91FF90EF90A6
:1001E000DF90CF90BF90AF909F908F9008952F9207
:1001F0003F924F925F926F927F928F929F92AF92B7
:10020000BF92CF92DF92EF92FF920F931F93CF9303
:10021000DF93CDB7DEB724970FB6F894DEBF0FBEDD
:10022000CDBF142F6C015B0120E030E0A9010E94DA
:100230000F1B8823CAF40DE280E090E07C0180E08F
:1002400090E84C018091C00080728030D9F3009317
:10025000C600B501C6019701A9010E94091B9401BE
:10026000C226D326181674F380E090E061E070E0B7
:100270002AE030E039014C017C01C7019301A4015F
:100280000E94481B7C011A951030B9F77C836B8360
:100290002FEF3FEF4FE75FE4B501C6013A832983B3
:1002A0000E94091B182FB501C6019401A4010E94E8
:1002B000061B082FB501C6010E94E819202F222332
:1002C00094010AF09B0111164FEF5FEF4A010CF009
:1002D0004901002320E030E00AF09C0111168FEF65
:1002E0009FEF3C010CF03901B401C3010E942B1AAD
:1002F0009B01AC01B501C6010E94181B8B016C016A
:100300006B817C81C7010E942B1A9B01AC01B80153
:10031000C6010E94151B40E05FE320E030E01901B8
:100320000E94E2195B012C019101A1010E94061BB0
:10033000182FB501C2010E94E8196C01812F882392
:100340000AF01B01B501C2012FEF3FEF29014FE772
:100350005FE40E94091B18160CF02101112360E0D4
:1003600070E09B014B815C810AF09601181614F035
:100370003A83298311E04416550689819A818E05B6
:100380009F0508F4112D812F992781709070880E98
:10039000991E661E771EB401C3010E94F602809169
:1003A000C00080728030D9F38EE28093C600117055
:1003B000E0E0F0E010306F0111F4C980DA80103015
:1003C0005F012B813C8109F452018AE090E02C010D
:1003D00010E301E02A303105EE06FF0608F0012D9A
:1003E00001704901B401C7019201AF013F010E94B0
:1003F0001F1BB401F3010030E9F481E0A216B3063B
:10040000C406D50608F4812D8170803039F48091BE
:10041000C00080728030D9F31093C60081E064314F
:100420007105EE06FF0608F0812D817080307A019B
:1004300009F4CFCFB501C6010E94F60224960FB68B
:10044000F894DEBF0FBECDBFDF91CF911F910F910A
:10045000FF90EF90DF90CF90BF90AF909F908F90E4
:100460007F906F905F904F903F902F900895909164
:10047000C00090729030D9F380638093C6000895D5
:100480002F923F924F925F926F927F928F929F92A4
:10049000BF92CF92DF92EF92FF920F931F93CF9371
:1004A000DF93CDB7DEB727970FB6F894DEBF0FBE48
:1004B000CDBF8C012DEC3CEC40E050E0B801CA010E
:1004C0000E94481B96958795969587959695879552
:1004D0004AE09402902D1124849F812D1124890FCC
:1004E0009927982F8827202D3327282B392BC801AF
:1004F000821B930B80638F83DE011396CD011496CC
:100500000A30110518F4CD0101964CC0BA83A983B5
:1005100003964C0180E090E06C012C01B8013C0195
:100520001601C1012DEC3CECB42EA1010E94481B28
:100530007C01F694E794F694E794F694E794812D81
:10054000912DB7012AE939E1A1010E94481B4B2DE9
:10055000F2019402902D1124849F812D1124890F82
:100560009927982F8827202D3327282B392BC7012F
:10057000821B930B8063D401AE0FBF1F8C93C3010A
:10058000019704361105870108F0C7CF3396E5308F
:10059000F105A981BA8191F0A80FB91FCD018E1B79
:1005A0009F0B05962C913091C00030723030D9F3FA
:1005B0002093C6001196A817B907A1F727960FB682
:1005C000F894DEBF0FBECDBFDF91CF911F910F9189
:1005D000FF90EF90DF90CF90BF909F908F907F9093
:1005E0006F905F904F903F902F9008952F923F9281
:1005F0004F925F926F927F928F929F92AF92BF9233
:10060000CF92DF92EF92FF920F931F93CF93DF93DE
:10061000CDB7DEB72A970FB6F894DEBF0FBECDBFB9
:100620007C018B012AE030E040E050E06A010E944A
:100630001F1B60636A8781E00A301105EC04FD042A
:1006400008F0812D8170803019F0E9E0F0E02DC0D4
:10065000E8E0F0E0CE0101962C01B801C7012AE0E4
:1006600030E0190140E050E03A014F010E941F1BA9
:1006700069015A01B601C5019101A3010E941F1B26
:10068000F4016063D201AE0FBF1F6C9381E00436AA
:100690001105E604F70408F0812D81703197803050
:1006A0008601750109F4D9CF3196CE010196DC019E
:1006B000AE0FBF1F2C913091C00030723030D9F393
:1006C0002093C6003196EA30F10589F72A960FB6D5
:1006D000F894DEBF0FBECDBFDF91CF911F910F9178
:1006E000FF90EF90DF90CF90BF90AF909F908F9052
:1006F0007F906F905F904F903F902F9008952F9232
:100700003F924F925F926F927F928F929F92AF92A1
:10071000BF92CF92DF92EF92FF920F931F93CF93EE
:10072000DF93CDB7DEB7C859D0400FB6F894DEBF1F
:100730000FBECDBF8FB7F89490914203913009F46A
:10074000BAC591E0909342038FBF7198699A80E196
:1007500090E09093C5008093C40082E08093C00035
:1007600088E18093C10086E08093C20087E880938F
:100770007A0080E480937C0074986C9A74982F9827
:10078000279A2F9880917E00816080937E008098C8
:10079000889880917E00826080937E0081988998FD
:1007A00080917E00846080937E0082988A98CE013A
:1007B000C69609964DE050E0612D7A010E947B1BA0
:1007C00000E010E01EAF0DAF1CAF0BAF80E89EE362
:1007D0009AAF89AF6C0118AF0FAB1EAACE01845B34
:1007E0009F4F0996612DA7010E947B1B0FB665964E
:1007F0001FAF0EAF65970FBE0FB663961FAF0EAF5C
:1008000063970FBE0FB66196DFAECEAE61970FBE97
:100810000FB62F961FAF0EAF2F970FBE0FB62E96A7
:100820001EAE2E970FBECE018E599F4F0996612D99
:10083000A7010E947B1B0FB6AB961FAF0EAFAB9705
:100840000FBE0FB6A9961FAF0EAFA9970FBE0FB67A
:10085000A796DFAECEAEA7970FBE0FB6A5961FAF79
:100860000EAFA5970FBE0FB6A4961EAEA4970FBEEF
:100870000FB6CD5ADF4F1FAF0EAFC355D0400FBEDE
:100880000FB6CF5ADF4F1FAF0EAFC155D0400FBECE
:100890008CE49EE30FB6C15BDF4F9FAF8EAFCF54AA
:1008A000D0400FBE2DEC3CEC0FB6C35BDF4F3FAF2B
:1008B0002EAFCD54D0400FBE0FB6C65BDF4F1FAF7B
:1008C0000EAFCA54D0400FBE0FB6C85BDF4F1FAF8C
:1008D0000EAFC854D0400FBE0FB6CA5BDF4F9FAFFC
:1008E0008EAFC654D0400FBE0FB6CC5BDF4F3FAFCC
:1008F0002EAFC454D0400FBE0FB6CF5BDF4F1FAF3B
:100900000EAFC154D0400FBE0FB6EF961FAF0EAF63
:10091000EF970FBE0FB6ED969FAF8EAFED970FBE60
:100920000FB6EB963FAF2EAFEB970FBE0FB6C45B83
:10093000DF4F1EAECC54D0400FBE0FB6CD5BDF4FA5
:100940001EAEC354D0400FBE0FB6EA961EAEEA9755
:100950000FBECE0188589F4FFC017296FA87E98737
:10096000F80109969C878B87DF01AC51BD4F8C91B4
:100970009091C00090729030D9F38093C600319668
:10098000E331F10589F76DE770E000E010E0C801A0
:100990000E94F602F801DF01A950BD4F8C919091A1
:1009A000C00090729030D9F38093C6003196E33145
:1009B000F10589F7749A80E090E0DC01A050BE4F09
:1009C0002C913091C00030723030D9F32093C600A2
:1009D00001968A30910589F760E570E000E010E04B
:1009E000C8010E94F602F801DF01A65FBD4F8C919D
:1009F0009091C00090729030D9F38093C6003196E8
:100A0000E730F10589F780E090E0DC01AF5EBD4F93
:100A10002C913091C00030723030D9F32093C60051
:100A200001968C35910589F700E010E0C801DC01E2
:100A3000A359BD4F2C913091C00030723030D9F3A2
:100A40002093C60001968E36910589F780E89FE3D2
:100A500067EF7FE31D8F0C8F9B8F8A8F18870F8323
:100A60001A8B098B188B0F871E870D87812D898F15
:100A7000612C81E08DAB1E8E1AAB09AB18AB0FA7B2
:100A8000C8019801FB013197F1F741E08D319105E3
:100A90002007310708F0412D41708F5F9F4F2F4F86
:100AA0003F4F403079F78BE191E20197F1F7809168
:100AB0007C00807E80937C0080917B00877F809388
:100AC0007B0080917A00806480937A0080917A0024
:100AD00080748030D9F7E0907800F09079008091B0
:100AE0007C00807E816080937C0080917B00877F8A
:100AF00080937B0080917A00806480937A0080915B
:100B00007A0080748030D9F7C0907800D090790056
:100B100080917C00807E826080937C0080917B004D
:100B2000877F80937B0080917A00806480937A0035
:100B300080917A0080748030D9F7209078003090CE
:100B40007900CE018D569F4FBE016A5C7F4FA70191
:100B50000E94AA090FB6C75ADF4F8EAD9FADC95587
:100B6000D0400FBE9EA38DA30FB6C95ADF4FAEACC7
:100B7000BFACC755D0400FBE0FB6CB5ADF4F4EACFF
:100B80005FACC555D0400FBECE018D569F4FBE0104
:100B9000645B7F4FA6010E94AA090FB6C75ADF4FB8
:100BA0008EAD9FADC955D0400FBE9AA789A70FB68D
:100BB000C95ADF4F8EAD9FADC755D0400FBE98A725
:100BC0008FA30FB6CB5ADF4F8EAC9FACC555D0402C
:100BD0000FBECE018D569F4FBE016E597F4F3CAA6E
:100BE0002BAAA1010E94AA090FB6C75ADF4F8EADEA
:100BF0009FADC955D0400FBE9EA78DA70FB6C95A4D
:100C0000DF4F8EAD9FADC755D0400FBE9CA78BA7C1
:100C10000FB6CB5ADF4F2EAC3FACC555D0400FBE00
:100C2000C801DC01A552BD4F2C913091C00030723B
:100C30003030D9F32093C60001968430910589F7AE
:100C400069A97AA963587F4F8FA598A98F4F9F4FA5
:100C50007AAB69AB98AB8FA70E9497008091C000D8
:100C600080728030D9F38CE2782E8093C6008DA9F3
:100C700081700E9437028091C00080728030D9F369
:100C8000872D8093C600C7010E9440028091C0005A
:100C900080728030D9F3872D8093C600C6010E94F0
:100CA00040028091C00080728030D9F3872D8093FC
:100CB000C6008BA99CA90E9440028091C00080724E
:100CC0008030D9F3872D8093C600C2010E94400274
:100CD0008091C00080728030D9F3872D8093C60048
:100CE000C4010E9440028091C00080728030D9F31C
:100CF000972C7092C600C1010E9440028091C000F2
:100D000080728030D9F3892D8093C600B5018DA102
:100D10009EA141E00E94F7008091C0008072803067
:100D2000D9F3B92C9092C6006FA178A589A59AA590
:100D300041E00E94F7008091C00080728030D9F3BA
:100D40008B2D8093C6006BA57CA58DA59EA541E04B
:100D50000E94F7008091C00080728030D9F3B09279
:100D6000C6009601275F334091E022316CEF3607D1
:100D700021E008F0212DA701475F5340423156077B
:100D800081E008F0812D4BA95CA9475F53404231B7
:100D9000560708F0912D822B892B0E9437028091F3
:100DA000C00080728030D9F38AE08093C6008DA99C
:100DB0008170803067EF7FE359F08EB18F7E2BA971
:100DC0003CA938A32F8FDCA2CBA2FAA2E9A26CC265
:100DD000862D81708030C9F049A05AA0E414F50432
:100DE00020F0E418F508270102C04E185F088BA117
:100DF0009CA1C816D90620F0C81AD90AC60102C09B
:100E00008C199D098832910588F4C801DC01A65F20
:100E1000BC4F2C913091C00030723030D9F3209308
:100E2000C60001968733910589F73CC2B2015C0187
:100E3000C8010E942B1A68018B017C01B8A6AFA2E1
:100E4000B501C6010E942B1A9B01AC01B801C70174
:100E50000E94E5191B015C01898D81708030D9F0F9
:100E6000B101C5010C8D1D8D9801EA8CFB8CA70189
:100E70000E94181B9801A7010E94E519960148ECF1
:100E800052E40E94151B7EA76DA79CA78BA781E04B
:100E9000898F86013BC06F8578898D859E859101FC
:100EA000A5010E94E219788B6F879E878D876F81DD
:100EB00078856F5F7F4F29893A892F4F3F4F81E0B7
:100EC000603571053A8B298B2C053D05860108F0AC
:100ED000812D8170803078876F8311F0812D11C052
:100EE00089899A890E942B1A9B01AC016F857889A8
:100EF0008D859E850E94E5197D8F6C8F9B8F8A8FD3
:100F000081E0898F1EA70DA71CA70BA78E8D81706E
:100F10008030812D09F480E84BA95CA96A012F8DEE
:100F200038A1C222D32242275327569547955CAB5E
:100F30004BAB95B19F77982B95B9CE0188589F4FB1
:100F4000A101B5010E945E097E8B6D8B9C8B8B8B02
:100F50008B859C854DA55EA56BA57CA50E945E0931
:100F60007EA36DA3988F8F8BB101BAA6A9A6C501E8
:100F70009801A8010E940C1B18160CF052C06C8D31
:100F80007D8D8A8D9B8D9801A8010E940C1B1816DF
:100F9000580148010CF09FC0B10189A59AA52C8D7C
:100FA0003D8D4A8D5B8D0E94E5195B014C019801D6
:100FB000A8010E940C1B18160CF036C0DA82C982F8
:100FC0003C822B825E824D82B501C401980140E0D3
:100FD00050E40E94091B3801280118160CF027C0A4
:100FE00088E192E71C0181E39FE36C0180E09FE3CD
:100FF0007C01B301C8019101A6010E94E2193B01E5
:101000008C01B501C4019201A7010E94151B5B016F
:101010004C01920140E050E40E94091B18164CF369
:101020000CC05801480157C05801480150C088E120
:1010300092E71C0180E09FE37C01B501C4019201AD
:10104000A7010E940F1B882381E39FEB6C01B2F480
:10105000B301C8019101A6010E94E2193B018C0174
:10106000B501C4019501A4010E94E2195B014C0184
:101070009201A7010E940F1B882352F3B501C401FE
:10108000920140E85FEB0E94E2199B01AC010E94D3
:10109000E2197B011C01B501C401920140E85FE344
:1010A0000E94E2199B01AC01B701C1010E94E51940
:1010B0009B01AC01B301C8010E94E2195B014C0124
:1010C00082014D805E802B803C80C980DA8080E088
:1010D00090E8882699268BA99CA9C80ED91E81E084
:1010E000EE8CE82689859A85A501B4010E945E09E7
:1010F0003B019CAB8BABC801DC01A152BD4F2C91D5
:101100003091C00030723030D9F32093C600019680
:101110008530910589F769A97AA98FA598A90E94B8
:1011200097008091C00080728030D9F38CE2F82E55
:101130008093C600898D0E9437028091C000807222
:101140008030D9F38F2D8093C600C2010E944002E7
:101150008091C00080728030D9F38F2D8093C600BB
:101160008FA198A50E9440024DA05EA08091C00072
:1011700080728030D9F38F2D8093C600B10189A58C
:101180009AA544E00E94F7008091C00080728030F0
:10119000D9F38F2D8093C6006D897E898B899C89B8
:1011A00044E00E94F7002F88388C8091C000807244
:1011B0008030D9F38F2D8093C6006C8D7D8D8A8D04
:1011C0009B8D44E00E94F7008091C00080728030C7
:1011D000D9F38F2D8093C6006DA57EA58BA59CA508
:1011E0009801A8010E94061B882342F08091C0004C
:1011F00080728030D9F38BE28093C6006DA57EA506
:101200008BA59CA542E00E94F7008091C0008072EF
:101210008030D9F38F2D8093C600B201C1019801AF
:10122000A8010E94061B882342F08091C0008072B2
:101230008030D9F38BE28093C600B201C10142E055
:101240000E94F7008091C00080728030D9F38F2D0A
:101250008093C600B501C40144E00E94F70080916C
:10126000C00080728030D9F38F2D8093C600B30107
:101270008BA99CA944E00E94F7008091C000807275
:101280008030D9F3F092C600C6010E944002EE8E73
:101290008091C00080728030D9F38AE08093C600CC
:1012A00067EF7FE38EB180618EB96DA8862D91E0E6
:1012B00089278DABE5CB8FBF0E94B10A8F929F9299
:1012C000AF92BF92CF92DF92EF92FF920F931F9354
:1012D0009B01BA01DC018C91803009F428C0FD012A
:1012E00001811281E380F4804F01C9019801A701B7
:1012F0000E94151B6B015C0160E070E080E89FE3D9
:101300009801A7010E94181BF401258136814781AD
:1013100050858F010E94151B9B01AC01B601C501D0
:101320000E94E2199C01F8017683658305C0FD01E6
:101330007683658381E08C9330872783C9011F9171
:101340000F91FF90EF90DF90CF90BF90AF909F9064
:101350008F9008952F923F924F925F926F927F925B
:101360008F929F92AF92BF92CF92DF92EF92FF92B5
:101370000F931F93CF93DF93CDB7DEB72A970FB6A6
:10138000F894DEBF0FBECDBFDB017C01FD01838978
:1013900094898530910508F0DBC0FD013996880FEE
:1013A000991F4F018E0F9F1FFC0151834083FD0148
:1013B000838994896F0101962DEC3CEC40E050E06C
:1013C000BC015C01CA013A018D010E94481B96953F
:1013D00087959695879525E09202902D1124829FFE
:1013E000812D1124890F9927982F8827202D3327A5
:1013F000282B392BA21AB30AF601B48AA38A95893D
:10140000953008F026C0892F83955801F801858B07
:10141000082F11276801CC0CDD1C592E9430A30134
:1014200021F04AE050E04C195D099E012F5F3F4FCB
:10143000C90119018C0D9D1D612D0E947B1BC101ED
:10144000B401A6010E94721B852D803079F48301BE
:1014500048C05801953009F077C0CE0101964AE0A6
:1014600050E0B4010E94721B05E010E0CE0101962D
:10147000FC01329641E050E020E030E06A01D60104
:10148000AC01CD01880F991F4A01840F951FBF0140
:10149000FC0140815181C60101962C013B01CB0129
:1014A0000297FC01C080D1804C155D0548F411976E
:1014B000FB01D182C082A115B105BC0189F7D90118
:1014C000AA0FBB1FC401A80FB91FFD0151834083A0
:1014D000F3013296A2014017510709F0CFCF1695BC
:1014E0000795000F111FCE010196800F911FFC017F
:1014F0000081118180E090E0B8010E942B1AAB01BD
:10150000BC01C5010E945E09F70195838483738342
:101510006283118300832A960FB6F894DEBF0FBE54
:10152000CDBFDF91CF911F910F91FF90EF90DF9092
:10153000CF90BF90AF909F908F907F906F905F9073
:101540004F903F902F900895892F99270E94AA0AC3
:101550000E94B90A8630910510F00E94B50A0E94D7
:10156000B70A0E94B30A0E94B50A0E94BB0A0E94F1
:10157000B50A0E94B50AFFCFEF92FF920F931F9317
:101580007C01D701BF77E0E8FFE791E061307105AA
:10159000AE07BF0708F4912D917083E0903009F0F9
:1015A00040C08A011F7791E0213031050E071F07E7
:1015B00008F4912D9170903009F033C00A2B1B2B49
:1015C000F901E62BF72BA0E0B0E081E0E115F10591
:1015D0000A071B0791E009F0912D9170903009F0F6
:1015E00020C0CA018E219F2181E099230AF4812D18
:1015F00081708030D9F0812D91E062177307E40685
:10160000F5060CF0982F9170903059F462277327EB
:10161000E426F526E62AF72A81E0E114F10409F030
:1016200082E01F910F91FF90EF900895812D91E03E
:10163000261737074E055F052CF7E5CF2F923F920F
:101640004F925F926F927F928F929F92AF92BF92D2
:10165000CF92DF92EF92FF920F931F93CF93DF937E
:10166000CDB7DEB722970FB6F894DEBF0FBECDBF61
:10167000390128011A014C0181E024143504660562
:10168000770508F0812D8170803021F040E050E036
:101690009A0153C16115710509F041C0C1019695C8
:1016A0008795822993299C0136952795369527950C
:1016B000282B392BA901529542954F7045275F7011
:1016C0004527422B532BCA01892F9927842B952B11
:1016D000809590959C013695279525753575821BCB
:1016E000930B9C01237333739695879596958795F5
:1016F00083739373820F931F9C01329522952F70F1
:1017000023273F702327280F391F2F703F70C901EF
:10171000892F9927820F931F907040963FC0CB016D
:1017200096958795862B972B9C0136952795369510
:101730002795282B392BA901529542954F704527A3
:101740005F704527422B532BCA01892F9927842B81
:10175000952B809590959C01369527952575357527
:10176000821B930B9C0123733373969587959695F3
:10177000879583739373820F931F9C0132952295F3
:101780002F7023273F702327280F391F2F703F709A
:10179000C901892F9927820F931F907061147104DA
:1017A00009F041C092013695279524293529A901D0
:1017B0005695479556954795422B532BFA01F2952E
:1017C000E295EF70EF27FF70EF27E42BF52B9F01D9
:1017D000232F33272E2B3F2B20953095A90156958B
:1017E000479545755575241B350BA90143735373F4
:1017F000369527953695279523733373240F351F18
:10180000A901529542954F7045275F704527420FB9
:10181000531F4F705F70FA01EF2FFF27E40FF51F82
:10182000F07070963FC09301369527952629372989
:10183000A9015695479556954795422B532BFA018A
:10184000F295E295EF70EF27FF70EF27E42BF52B71
:101850009F01232F33272E2B3F2B20953095A90155
:101860005695479545755575241B350BA90143734E
:101870005373369527953695279523733373240F25
:10188000351FA901529542954F7045275F70452736
:10189000420F531F4F705F70FA01EF2FFF27E40FC5
:1018A000F51FF070E81BF90B8E2F8F7180309201BD
:1018B000A30149F09201A301220F331F441F551FBA
:1018C0008A958030C9F781E02216330664077507D0
:1018D00008F0812D992781709070E81BF90BAF01FA
:1018E0004F715070403059F0842FD2017301AA0F0C
:1018F000BB1FEE1CFF1C8A958030C9F702C0D201C5
:1019000073012A1A3B0A6E097F0920E030E081E06A
:1019100090E0403031F0880F991F221F331F4A9505
:10192000F8CF41E0241435046605770508F0412D11
:101930004170403009F425C0AC0161015B01F40144
:10194000D582C48251834083B782A68233832283A7
:1019500022960FB6F894DEBF0FBECDBFDF91CF91B8
:101960001F910F91FF90EF90DF90CF90BF90AF90BD
:101970009F908F907F906F905F904F903F902F90AF
:10198000089541E05F2D55230AF4412D4170403008
:1019900041F0FA83E983FC018901AC0161015B013B
:1019A00043C0F694E794B795A7953197FA83E983F6
:1019B0004E2F4F7100E010E0E1E0F0E0403031F0F8
:1019C000EE0FFF1F001F111F4A95F8CF6101CA1AC1
:1019D000DB0A5B01AE08BF0851E04B2D442341E018
:1019E0000AF4412D4170403009F46101403009F49E
:1019F0005B01C414D504A604B70408F0512D40308F
:101A0000B80111F460E070E05170752E4030AF0104
:101A100011F440E050E0622B732B9B01482B592BB3
:101A2000872D803009F08BCF2A013901E150F04039
:101A30000040104089819A8181159105E1F0CC0C1C
:101A4000DD1CAA1CBB1C96012A1B3B0BB5016E09B1
:101A50007F092F5F3F4F6F4F7F4F41E0572F552337
:101A60000AF0412D4170403009F45B01403009F427
:101A700069010197E1CFEC21FD21A2014E2B5F2BE3
:101A80000A211B219301202B312B89819A818F718F
:101A9000803009F454CFB694A794D794C7948A950C
:101AA000F7CF2F923F924F925F926F927F928F92D9
:101AB0009F92AF92BF92CF92DF92EF92FF920F93DD
:101AC0001F93CF93DF93CDB7DEB726970FB6F89469
:101AD000DEBF0FBECDBF260145015C011B015C834B
:101AE0004B833901B701C8010E94481B8B016C016F
:101AF000B4015E824D82C2019101A5010E94481B82
:101B00005B017C01A00EB11EEC1CFD1C00E010E08E
:101B1000B201C8019301A8010E94481B6B011C017E
:101B2000B401C8014B805C809201A8010E94481B4F
:101B3000C60ED71E281E391EC801881F991F9A83FA
:101B40008983B401C8019301A8010E94481B4B017D
:101B50003C016D817E81C8019201A8010E94481B51
:101B60006C0C7D1C621D731D29813A81821F931F9D
:101B70006A0D7B1D8E1D9F1D9401A30126960FB635
:101B8000F894DEBF0FBECDBFDF91CF911F910F91B3
:101B9000FF90EF90DF90CF90BF90AF909F908F908D
:101BA0007F906F905F904F903F902F9008952F926D
:101BB0003F924F925F926F927F928F929F92AF92DD
:101BC000BF92CF92DF92EF92FF920F931F935A0131
:101BD0007C01F701FF77DF01A058BF4780E890E85C
:101BE00041E061307105A807B90708F0412D417047
:101BF000D501BF77403009F0B0C08D0100581F47B4
:101C000041E0213031050807190708F0412D4170E6
:101C1000403009F0A2C081E062177307EA07FB07B2
:101C200091E008F0912D91709030F50109F4F701E1
:101C30009030690109F46B014E2F440F3F01AF2F23
:101C4000AA1FB12DBB1F4A2FB070E0E0F0E0411594
:101C50004F01B1058804990409F0812D9030870166
:101C600009F485018170903009F4B901902F990F22
:101C7000E12FEE1FF12DFF1FF07093012F773070D1
:101C8000803009F089C014010F77107081E0E115F0
:101C9000F1058804990409F4812D8170803009F4DC
:101CA000CBC0A40181E0AE17BF07410184069506B1
:101CB00009F0812D81702D01AE1BBF0B4101840AFB
:101CC000950AAE24BF24660F771F001F111F660FF1
:101CD000771F001F111F660F771F001F111F146051
:101CE000CC0CDD1C221F331FCC0CDD1C221F331F2C
:101CF000CC0CDD1C221F331F803009F0F0C081E0C6
:101D0000A032B10540E050E08406950608F0812D30
:101D10008170803009F4E0C08A2F81958F71803006
:101D20007B01480149F07B014801EE0CFF1C881C37
:101D3000991C8A958030C9F7A03009F4ACC1D20152
:101D4000EA1BE39581E0E03009F0812D16950795B7
:101D5000779567958130A9F79FC180E89FE741E0BB
:101D600061307105E807F90708F4412D41704030F2
:101D700021F0E064AB018F0138C341E0213031052F
:101D8000A807B90708F4412D4170403009F4A9C0F3
:101D9000A064A9018D0129C381E0C114D1042805E3
:101DA000390509F0812D8170803009F0B7C0211507
:101DB000310509F0C7C0C601969587958C299D29E4
:101DC000AC015695479556954795482B592BDA0106
:101DD000B295A295AF70AB27BF70AB27A42BB52BE4
:101DE000CD01892F99278A2B9B2B80959095AC014B
:101DF0005695479545755575841B950BAC014373F6
:101E00005373969587959695879583739373840FEF
:101E1000951FAC01529542954F7045275F7045273D
:101E2000480F591F4F705F70CA01892F9927840F7F
:101E3000951F90704096C5C081E061157105080539
:101E4000190509F0812D8170803009F06AC00115F3
:101E5000110509F0CCC0CB0196958795862B972B61
:101E6000AC015695479556954795482B592BFA0145
:101E7000F295E295EF70EF27FF70EF27E42BF52B3B
:101E8000CF01892F99278E2B9F2B80959095AC01A0
:101E90005695479545755575841B950BAC01437355
:101EA0005373969587959695879583739373840F4F
:101EB000951FAC01529542954F7045275F7045279D
:101EC000480F591F4F705F70CA01892F9927840FDF
:101ED000951F90704096CAC061E070E08A01D201FF
:101EE000E7C041E061157105E807F90709F0412DE8
:101EF00041704030C9F0AE24BF242627372740E088
:101F000050E881E021153105A406B50609F0812DC0
:101F10008170803009F075C1870175C180E290E061
:101F200053C080E290E0A5C041E021153105A8072B
:101F3000B90709F0412D4170403009F468C1A90189
:101F4000850153C2C90196958795822B932BAC01CD
:101F50005695479556954795482B592BDA01B295DA
:101F6000A295AF70AB27BF70AB27A42BB52BCD01CB
:101F7000892F99278A2B9B2B80959095AC0156959C
:101F8000479545755575841B950BAC014373537389
:101F9000969587959695879583739373840F951F70
:101FA000AC01529542954F7045275F704527480F09
:101FB000591F4F705F70CA01892F9927840F951F91
:101FC000907040E050E04A01A9E0B0E0A81BB90BD6
:101FD000A401404050401A01885E8F71803009F49E
:101FE00053CECC0CDD1C221F331F8A95F7CFC801BE
:101FF00096958795802B912BAC01569547955695D4
:102000004795482B592BFA01F295E295EF70EF278F
:10201000FF70EF27E42BF52BCF01892F99278E2B0B
:102020009F2B80959095AC015695479545755575B4
:10203000841B950BAC0143735373969587959695C6
:10204000879583739373840F951FAC0152954295C6
:102050004F7045275F704527480F591F4F705F70BD
:10206000CA01892F9927840F951F907040E050E096
:102070004A01E9E0F0E0E81BF90BA40140405040C0
:10208000885E8F71803009F40DCE660F771F001FB8
:10209000111F8A95F7CFD20181E0E114F104840683
:1020A000950609F4812D992781709070682B792B02
:1020B00081E0BB200AF4812D3460A3014070507888
:1020C0007A0181708030B9F0C60ED71E021F131F2F
:1020D00098012070387081E01114110440E050E044
:1020E0002407350709F0812D81708030910109F4B2
:1020F00065C0B60177C0C61AD70A200B310B81E044
:10210000C114D10440E050E02407350709F0812DC7
:102110008170803009F05FC040E054E081E0C1147C
:10212000D1042407350708F4812D8170803009F02F
:1021300054C02115310509F088C0C60196958795D0
:102140008C299D29AC015695479556954795482B66
:10215000592BBA01729562956F7067277F70672758
:10216000642B752BCB01892F9927862B972B809574
:102170009095AC015695479545755575841B950B03
:10218000AC014373537396958795969587958373A2
:102190009373840F951FAC01529542954F7045275C
:1021A0005F704527480F591F4F705F70CA01892F14
:1021B0009927840F951F9070409686C0AF5FBF4FE0
:1021C0002F4F3F4F16950795D794C7946170707045
:1021D0006C297D2907C08A0108C1B601890140E048
:1021E00050E0910181E0AF3FB105240735070CF4C1
:1021F000812D8170803009F483C0870100681F67DA
:10220000F4C000EC1FE78030E9F4AB01EEC080E0E1
:1022100090E041E061157105E807F90709F0412DEB
:102220004170403009F0F4C041E021153105A807A4
:10223000B90709F0412D41704030AB01870109F425
:10224000EACCD3C040E050E0D0C0C9019695879554
:10225000822B932BAC015695479556954795482B65
:10226000592BBA01729562956F7067277F70672747
:10227000642B752BCB01892F9927862B972B809563
:102280009095AC015695479545755575841B950BF2
:10229000AC01437353739695879596958795837391
:1022A0009373840F951FAC01529542954F7045274B
:1022B0005F704527480F591F4F705F70CA01892F03
:1022C0009927840F951F90708550904040E050E012
:1022D00040405040803059F0E82FB6018901660F28
:1022E000771F001F111FEA95E030C9F702C0B60141
:1022F0008901A81BB90B9101240B350B40E050E07C
:1023000081E01A161B06420753070CF4812D8170D9
:10231000803009F429C081E090E08A1B9B0BAA95CC
:10232000AF71A0309B01F80149F09B01F801220F29
:10233000331FEE1FFF1FAA95A030C9F78F718030A1
:1023400031F016950795779567958A95F8CF81E0D6
:1023500021153105E407F50709F4812D99278170CE
:102360009070682B792BDA01CA019B0127703070BD
:1023700041E0253031058807990708F4412D417067
:10238000B695A795912D812DE12DE795FA2F1695FC
:10239000079577956795169507957795679516959F
:1023A000079577956795862B972B0F7710700E2BD7
:1023B0001F2B0E291F29403029F08F5F9F4F0F4F91
:1023C0001F4F12C041E02430310520E030E02207E9
:1023D000330709F0412D4170403031F06170707069
:1023E000860F971F021F131FAC01BA01C8011F916E
:1023F0000F91FF90EF90DF90CF90BF90AF909F90A4
:102400008F907F906F905F904F903F902F900895A6
:1024100041E021153105A807B90709F0412D4170A8
:102420004030A901850109F326233723AE20BF20C0
:1024300086CD0E94BC0A982F8FEF923024F4903002
:1024400029F0812D0895923009F481E008950E94C9
:10245000BC0A982F8FEF923024F4903029F0812D10
:102460000895923009F481E008950E94BC0A982FE3
:102470009250923010F481E00895803011F48FEF83
:102480000895812D08950E94BC0A982F9250923091
:1024900010F481E00895803011F48FEF0895812DBC
:1024A00008952F923F924F925F926F927F928F92F8
:1024B0009F92AF92BF92CF92DF92EF92FF920F93D3
:1024C0001F93CF93DF93CDB7DEB72C970FB6F89459
:1024D000DEBF0FBECDBF59017C876B87282F220F2F
:1024E0006C01892F881F912D991F907000E010E0DA
:1024F000DC01AF5FB040F801E040F0407FEF2FEF2C
:102500003FEF61E0A230B707E207F30708F0612D63
:1025100061704A01782D770FA92DAA1FB12DBB1F1D
:10252000B0708A1B9B0BF801E040F0409C012158E1
:102530003F4F3C832B833F01EF4FFF4F1F01AF5FA6
:10254000B040780100401040F4019601E227F327E3
:10255000E070F078F887EF83F401EF77F0702F7771
:102560003070603009F0BAC07FEF61E0A230B70789
:10257000AFEFBFEF0A071B0708F4612D61706030F1
:1025800009F4ACC04101B5015901E068FE83ED8357
:10259000FE2EE72E7A876987562E412CE4E0F5E778
:1025A000EE19FF0911E020E030E0B701C90119017F
:1025B0009F01A1016F010E94481BBC0171956195AB
:1025C0007109C1019601A1010E94481B9101FC0102
:1025D000770FEE1FFF1F11701030112D31F731975B
:1025E000B701C90189019F01A8013F010E94481B51
:1025F0007B016C01B2016070C8019301A8010E94C7
:10260000481B8E0D9F1DC01ED11E21E030E0281BEF
:10261000390B290198012C093D09B301C801A80112
:102620000E94481B7B016C01B201C8019301A80103
:102630000E94481B770F881F991F212D221F312DC3
:10264000A701440F551FB601661F771F480F591F7A
:10265000621F731F4F5450409A0160407040AB019D
:10266000C5018068AB84BC84AA0CBB1CC82ECC1CE2
:102670009A838983D92EDD1CB801C80178010E9494
:10268000121B7B01FC0120E031E081E0E114F10448
:10269000E207F30708F0812D8170803084014D81BD
:1026A0005E8109F432C069857A85CA0197012F01DC
:1026B000AF010E94481B2B853C85922E812C712CEA
:1026C000612C661A770A880A990AEB81FC81E1502D
:1026D000F04000401040BC86AB8634C04901D601B2
:1026E000BF7720E83FE761E00B851C8501301105CD
:1026F000A207B30708F4612D6170603009F450C07F
:10270000960120640B851C8590C12B853C85832F09
:102710008695922E9794712C612C812C8794F69536
:10272000E795F794E794B7012F01CF0129853A8502
:102730000E94481B661A770A880A990AC980DA80BB
:10274000EB81FC8181E0EF3FF10591010207130766
:102750000CF4812D8170803069857A85AD81BE81D0
:10276000A20109F0FEC081E01E161F0620073107F6
:102770000CF0812D8170803009F442C0660C771C0A
:10278000881C991CF695E795112D012D812D8795B3
:102790009E2F0E291F294F775070482B592B08C1A7
:1027A0006F018A011F7761E0F90195012130310540
:1027B0009F010207130708F4612D6170603021F05A
:1027C0009A012064850131C141E06B857C856115EA
:1027D0007105A207B307B50109F0412D41704030E2
:1027E00009F42FC081E0611571050207130709F094
:1027F000812D8170803009F4B4C020EC3FE7B5C072
:102800009FEF81E0E93EF9072FEF3FEF0207130743
:102810000CF0812D817080306B847C84F1F4E13088
:1028200009F4A6C08E2F8A958701839591E08030A8
:1028300009F0912D56954795179507959130A9F771
:1028400098C041E06115710528010207130709F0DE
:10285000412D41704030870129F000E010E02F81C8
:102860003885E3C041E02B853C8521153105A00763
:10287000B10709F0412D4170403009F0F1C041E04D
:102880006115710592012007310709F0412D417052
:10289000403009F066C040E850E061E02B853C859F
:1028A00021153105A407B50708F0612D617060306E
:1028B0002B813C8109F4E2C061E02B853C85211528
:1028C000310594012007310709F0612D61706030F6
:1028D00009F0D8C02115310509F0D7C0EB85FC857A
:1028E000BF01769567956E2B7F2BFB01F695E795DB
:1028F000F695E795E62BF72BBF01729562956F7001
:1029000067277F7067276E2B7F2BFB01EF2FFF2739
:10291000E62BF72BE095F095BF01769567956575E9
:102920007575E61BF70BBF0163737373F695E79537
:10293000F695E795E373F373E60FF71FBF01729502
:1029400062956F7067277F7067276E0F7F1F6F70AC
:102950007F70FB01EF2FFF27E60FF71FF0707096D7
:10296000D3C02F81388520683F6700E010E05DC04C
:102970008701E95E4601E03031F0660C771C881C67
:10298000991CEA95F8CF69857A85CD0198017A017D
:102990000E94481BA701AD81BE81660F771F881F6B
:1029A000991F661A770A69857A85880A990A9101BA
:1029B000C80181709070860D971D821E931E5C0168
:1029C00068177907A805B90581E008F0812D9927D6
:1029D00081709070080F191F421F531F80E89FE7F6
:1029E0000115780111056A014807590711E008F03F
:1029F000112D23E030E0CD01A1010E94481B6A1592
:102A00007B058805990581E008F0812D1823812F29
:102A10009927817090708701080F191F9601221D58
:102A2000331D8F819885282B392BB801C9012C962D
:102A30000FB6F894DEBF0FBECDBFDF91CF911F91CF
:102A40000F91FF90EF90DF90CF90BF90AF909F904D
:102A50008F907F906F905F904F903F902F90089550
:102A600081E0611571054006510609F0812D8170E4
:102A7000803009F4F4CE20EC3FE7D7CFC901D10173
:102A800094015AC0E0E2F0E03FC0B9017695679545
:102A9000622B732BFB01F695E795F695E795E62BF0
:102AA000F72BBF01729562956F7067277F7067275C
:102AB0006E2B7F2BFB01EF2FFF27E62BF72BE095EB
:102AC000F095BF017695679565757575E61BF70BF3
:102AD000BF0163737373F695E795F695E795E37316
:102AE000F373E60FF71FBF01729562956F7067274A
:102AF0007F7067276E0F7F1F6F707F70FB01EF2F56
:102B0000FF27E60FF71FF0706B857C85AE2FA85E60
:102B1000AF71A03031F0660F771F221F331FAA95C7
:102B2000F8CF7C876B878E1B9F0BD301A040B040F2
:102B300088579F4FAF4FBF4F61E0F501E115F10599
:102B40004406550608F4612D6170603009F054C0E8
:102B500041E0B50161157105F601E007F10709F0E3
:102B6000412D41707D01403009F04CC0A601411556
:102B7000510509F04AC0AB0156954795462B572B96
:102B8000BA017695679576956795642B752BFB0151
:102B9000F295E295EF70EF27FF70EF27E62BF72B0A
:102BA000AF01452F55274E2B5F2B40955095BA010D
:102BB0007695679565757575461B570BBA016373F6
:102BC0007373569547955695479543735373460FC0
:102BD000571FBA01729562956F7067277F706727DC
:102BE000640F751F6F707F70DB01AB2FBB27A60FC3
:102BF000B71FB070509648C09C838B834D01B501C0
:102C0000F601C2CCA0E2B0E040C0BA0156954795AB
:102C1000462B572BBA017695679576956795642B69
:102C2000752BFB01F295E295EF70EF27FF70EF2710
:102C3000E62BF72BAF01452F55274E2B5F2B4095E9
:102C40005095BA017695679565757575461B570B56
:102C5000BA016373737356954795569547954373B9
:102C60005373460F571FBA01729562956F706727AD
:102C70007F706727640F751F6F707F70DB01AB2F4C
:102C8000BB27A60FB71FB070B501F601AD014950C3
:102C9000504000401040A85EAF71A03031F0660F88
:102CA000771FEE1FFF1FAA95F8CF480F591F5C83AF
:102CB0004B830E1D1F1D480167CC2F923F924F92F0
:102CC0005F926F927F928F929F92AF92BF92CF92BC
:102CD000DF92EF92FF920F931F93CF93DF93CDB7C5
:102CE000DEB724970FB6F894DEBF0FBECDBF5901F3
:102CF0006B01282F220F692F661F712D771F7070AF
:102D0000E0E0F0E07A8369836F5F7040E040F0407C
:102D1000AFEF2FEF3FEFB1E062307A07E207F30742
:102D200008F0B12DB170642F660F652F661F712DED
:102D3000771F70701B016F5F7040E0E0F0E0E040D3
:102D4000F0408A0108271927007010781C830B8334
:102D50008A010F77107038018C010F771070B03036
:102D600009F060C0BFEFA1E062307B07E207F30724
:102D700008F0A12DA170A03009F054C080E090E0CF
:102D80007C0127014701D601B501E62D5E2F472FB3
:102D9000362F212D50680068B701C7015D01680119
:102DA00000E010E00E94121BE0E0F0E05F017C0117
:102DB000D701A078B07081E011141104AA05BB05F9
:102DC00009F0812D8170F101A981BA81EA0FFB1F01
:102DD000E40DF51D84010A1D1B1D803009F434C06B
:102DE000220F331FA42FAA1FB52FBB1FEF57F04090
:102DF00000401040EE0CFF1CCB01892F82958F7094
:102E000099278695869586958E299F29660F771F27
:102E1000452F42954F705527469546954695462B2A
:102E2000572B19C0FC01FF7720E83FE761E0D6018E
:102E3000A130B105E207F30708F4612D617060303D
:102E400009F433C0806413C1EE57F04000401040D5
:102E5000DA01AB01C70161E0EF3FF1050A051B058F
:102E60000CF4612D6170603039F08B819C81806839
:102E70009F67A0E0B0E0FBC061E01E161F06A00641
:102E8000B1060CF4612D6170603009F03EC0F6951A
:102E9000E7957E2FF12DE12D612D6795E42BF52B24
:102EA0008F779070862B972BBAC048017A018A01E0
:102EB0001F7781E0B50161307105680102071307D2
:102EC00008F4812D8170803021F0C7018064DB011E
:102ED000CEC081E0A115B105E207F30709F0812D0D
:102EE0008170803009F42AC081E06115710500E02D
:102EF00010E0C006D10609F0812D8170803009F400
:102F0000B4CF80EC9FE7D801B2C061E070E02F0140
:102F10006E1B7F0BF501E00BF10B11E06032862E8A
:102F20007105EA05FB0508F4112D1170103009F444
:102F300023C0A0E0B0E08B819C8199C081E0611545
:102F4000710586010207130709F0812D8170803019
:102F500009F4A7C081E0A115B105A0E0B0E0EA073F
:102F6000FB0709F0812D8170803009F019C18B8138
:102F70009C8180689F677BC0B201615E7F4F60303B
:102F8000F9015D0151F0762FF9015D01EE0FFF1F90
:102F9000AA1CBB1C7A957030C9F760306A017C01AD
:102FA00049F06A017C01CC0CDD1CEE1CFF1C6A950B
:102FB0006030C9F7682D603069F0642D6A956395BB
:102FC00071E0603009F0712DB695A795379527957A
:102FD0007130A9F761E0E115F10500E010E0A0060D
:102FE000B106580109F4612D7727617070702C29A2
:102FF0003D29262B372BAE29BF29682D6030E42DC3
:1030000069F0EA95E39561E0E03009F0612D6170C7
:1030100096958795579547956030A1F3FA0140E062
:1030200050E861E021303105A407B50708F4612DAF
:1030300061700B811C81802B912B603031F0DF019E
:10304000AF5FBF4F8F4F9F4F12C061E02115310519
:10305000A407B50709F4612D61706030DF0139F410
:103060009D0121703070A20FB31F8A1D9B1DBD01F1
:1030700024960FB6F894DEBF0FBECDBFDF91CF917F
:103080001F910F91FF90EF90DF90CF90BF90AF9086
:103090009F908F907F906F905F904F903F902F9078
:1030A000089581E0A115B10520E030E0E207F307C3
:1030B00009F0812D8170803009F03BCF81E06115EE
:1030C00071050207130709F0812D8170803009F026
:1030D00030CF840120E830E081E0A115B105E2079E
:1030E000F30708F0812D817040E050E0803080E0EF
:1030F00090E07C01F30109F456C0390181E0A1158B
:10310000B10598012407350709F0812D81708030C1
:1031100009F0A6C098012115310509F0A7C0CD011D
:10312000969587958A2B9B2B9C01369527953695EE
:103130002795282B392BB901729562956F706727F7
:103140007F706727622B732BCB01892F9927862BE2
:10315000972B809590959C0136952795257535750B
:10316000821B930B9C0123733373969587959695D9
:10317000879583739373820F931F9C0132952295D9
:103180002F7023273F702327280F391F2F703F7080
:10319000C901892F9927820F931F90704096A5C06F
:1031A00080EC9FE764CF2A014A0181E06115710537
:1031B000C206D30608F4812D8170803009F0E6CD77
:1031C00081E061157105E407F50709F0812D817033
:1031D000803009F048C0E115F10509F09CC0CB0131
:1031E00096958795862B972B9C0136952795369536
:1031F0002795282B392BA901529542954F704527C9
:103200005F704527422B532BCA01892F9927842BA6
:10321000952B809590959C0136952795257535754C
:10322000821B930B9C012373337396958795969518
:10323000879583739373820F931F9C013295229518
:103240002F7023273F702327280F391F2F703F70BF
:10325000C901892F9927820F931F907040969AC0B9
:1032600080E290E043C080E290E094C0C90196956E
:103270008795822B932B9C0136952795369527951C
:10328000282B392BB901729562956F7067277F7073
:103290006727622B732BCB01892F9927862B972BBE
:1032A000809590959C013695279525753575821BDF
:1032B000930B9C0123733373969587959695879509
:1032C00083739373820F931F9C01329522952F7005
:1032D00023273F702327280F391F2F703F70C90104
:1032E000892F9927820F931F9070B50129E030E054
:1032F000281B390B29019A01204030404901885E82
:103300008F719301803009F450CFAA0FBB1F001FAB
:10331000111F8A95F7CFCF01969587958E2B9F2BFE
:103320009C013695279536952795282B392BA90191
:10333000529542954F7045275F704527422B532B7E
:10334000CA01892F9927842B952B809590959C01F4
:103350003695279525753575821B930B9C01237334
:103360003373969587959695879583739373820F9C
:10337000931F9C01329522952F7023273F7023279E
:10338000280F391F2F703F70C901892F9927820F8D
:10339000931F9070282F285E2F71203031F0660F18
:1033A000771FEE1FFF1F2A95F8CF9201281B390BBC
:1033B000C40180409040275F3F4F29018F4F9F4FAE
:1033C0004C01E4CC0E94D70D08950E94511208953B
:1033D000AB0160E87FE321E04115510586079707BF
:1033E00008F0212D217060E070E0203019F09B0181
:1033F000C9010895E0E8FFE421E0411551058E0779
:103400009F0708F0212D21702030B1F0382F252F93
:10341000742F612D3068880F991F9E3949F39E598A
:10342000939581E0903009F0812D36952795779519
:1034300067958130A9F7DCCFE0E8FFE721E0413074
:1034400051058E079F0708F0212D203009F4CFCFBA
:103450006FEF7FEFCCCFEF92FF920F931F9320E09F
:1034600030E041E0611571058207930709F0412DB5
:103470004170403009F045C08115910509F043C005
:103480009B0136952795262B372BA90156954795F5
:1034900056954795422B532BFA01F295E295EF7022
:1034A000EF27FF70EF27E42BF52B9F01232F332706
:1034B0002E2B3F2B20953095A901569547954575A4
:1034C0005575241B350BA901437353733695279506
:1034D0003695279523733373240F351FA901529511
:1034E00042954F7045275F704527420F531F4F701D
:1034F0005F70FA01EF2FFF27E40FF51FF070709651
:1035000041C0C9017DC09C0136952795282B392BD8
:10351000A9015695479556954795422B532BFA018D
:10352000F295E295EF70EF27FF70EF27E42BF52B74
:103530009F01232F33272E2B3F2B20953095A90158
:103540005695479545755575241B350BA901437351
:103550005373369527953695279523733373240F28
:10356000351FA901529542954F7045275F70452739
:10357000420F531F4F705F70FA01EF2FFF27E40FC8
:10358000F51FF070E03041F02E2F660F771F881F77
:10359000991F2A952030C9F7272F382F892F912D71
:1035A000A90140955095762F612DB12DA12D172F92
:1035B000110F012D001F112DE12CF12C04231523D7
:1035C000AC01409550954E215F21A01BB10B640BBF
:1035D000750B770F412D441F512D612D712DF695DF
:1035E000E795B12DA12D012D07951E2F2A1B3B0B11
:1035F000800B910B240F351F861F971F8058914B0E
:10360000B9011F910F91FF90EF9008950E94191238
:1036100008950E94271208950E94351208950E946D
:10362000431208950E94510D08950E945D16089559
:10363000E0E0F0E84E275F270E94D70D08950F9332
:103640001F93CF93DF93CDB7DEB728970FB6F894CB
:10365000DEBF0FBECDBFFA01DC01AB01CE0101968A
:10366000BD0189019F010E941E0B8F8198856D818C
:103670007E814B815C8129813A8128960FB6F8942E
:10368000DEBF0FBECDBFDF91CF911F910F91089587
:10369000DB018F939F930E94581BBF91AF91A29F14
:1036A000800D911DA39F900DB29F900D1124089540
:1036B0000E94631BA59F900DB49F900DA49F800D49
:1036C000911D11240895A29FB001B39FC001A39F33
:1036D000700D811D1124911DB29F700D811D11244B
:1036E000911D0895FB01DC0102C001900D92415033
:1036F0005040D8F70895DC0101C06D93415050400F
:08370000E0F70895F894FFCFF3
:10370800426173656C696E653A20207061697273F5
:103718000A747970652C74696D657374616D702CA9
:1037280070686173652C6368315F7261772C6368B8
:10373800325F7261772C6368335F7261772C6368DC
:10374800315F66696C742C6368325F66696C742CCF
:103758006368335F66696C742C656D61312C656DC7
:1037680061322C656D61332C666C61670A747970FF
:10377800652C74696D657374616D702C6761735F16
:10378800666C61672C7261775F76616C312C72614F
:10379800775F76616C322C726174696F2C72617418
:1037A800696F5F66696C742C626173656C696E65BC
:1037B8002C64656C7461312C64656C7461322C7294
:1037C8006573706F6E7365312C726573706F6E738D
:1037D80065322C656D615F6F75740A5241572C50C4
:1037E800524F432C2A2A2A204952204C414D50201E
:1037F8004D4F4445202D206D732068616C662D70F7
:103808006572696F64202A2A2A0A57524E2070610D
:10381800697220736B69703A207265665F646966C5
:10382800663C5245465F444946465F4D494E202D09
:10383800206C616D7020737769746368696E673F87
:023848000A0074
:00000001FF
