:0200000460009A
:100000004643464200000156000000000101020084
:1000100000000000000000000000000000000000E0
:1000200000000000000000000000000000000000D0
:1000300000000000000000000000000000000000C0
:1000400000000000010403000000000000000000A8
:100050000000200000000000000000000000000080
:100060000000000000000000000000000000000090
:100070000000000000000000000000000000000080
:10008000EB04180A063204260000000000000000FD
:10009000050404240000000000000000000000002F
:1000A0000000000000000000000000000000000050
:1000B0000604000000000000000000000000000036
:1000C0000000000000000000000000000000000030
:1000D00020041808000000000000000000000000DC
:1000E0000000000000000000000000000000000010
:1000F0000000000000000000000000000000000000
:1001000000000000000000000000000000000000EF
:100110000204180804200000000000000000000095
:1001200000000000000000000000000000000000CF
:10013000600400000000000000000000000000005B
:1001400000000000000000000000000000000000AF
:10015000000000000000000000000000000000009F
:10016000000000000000000000000000000000008F
:10017000000000000000000000000000000000007F
:10018000000000000000000000000000000000006F
:10019000000000000000000000000000000000005F
:1001A000000000000000000000000000000000004F
:1001B000000000000000000000000000000000003F
:1001C000000100000010000001000000000000001D
:1001D000000000000000000000000000000000001F
:1001E000000000000000000000000000000000000F
:1001F00000000000000000000000000000000000FF
:10020000D4D4D4D4D4D4D4D4D4D4D4D4D4D4D4D4AE
:10100000D10020400020006000000000000000002F
:1010100020100060001000600000000000000000D0
:10102000000000601417010000000000EFBEADDEFC
:10103000124880F3088812481249016000F036F81F
:10104000114812490022814201D004C0FBE7104838
:101050001049114A814202D008CA08C0FAE70F4875
:101060004FF47001026842EA01020260BFF34F8F41
:10107000BFF36F8F00F014F800DE00000040002086
:1010800008ED00E000400020005000209C8A002075
:10109000B84200204C4400201417016088ED00E0A5
:1010A00041F20D6CC0F2000C6047D4D4204840F2ED
:1010B0009C41884219D040F24C418842CCBF1D4A25
:1010C0001D4A1E4B5360136823F0800313601C48B5
:1010D0001C49C1BF1C480A0C8264C1F30F01416462
:1010E000016C41F00401016402E0184815490160F7
:1010F0001748184A824205D01749814202D008CACF
:1011000008C0FAE71548164A824205D015498142BF
:1011100002D008CA08C0FAE71348144A824205D030
:101120001349814202D008CA08C0FAE7704700009C
:10113000240400000080034000C00B4020C528D9D3
:1011400000C00A40AAAAFAFF00400E4060004F44C7
:1011500000000000B8220060F8D10000004000202C
:1011600000200060B842002000002020B0F40060A1
:1011700064222020D4D4D4D4D4D4D4D4D4D4D4D4B9
:10118000D4D4D4D4D4D4D4D4D4D4D4D4D4D4D4D41F
:10119000D4D4D4D4D4D4D4D4D4D4D4D4D4D4D4D40F
:1011A000D4D4D4D4D4D4D4D4D4D4D4D4D4D4D4D4FF
:1011B000D4D4D4D4D4D4D4D4D4D4D4D4D4D4D4D4EF
:102000000040002031100060C1410000F1D100000B
:10201000C1410000C1410000C141000000000000BA
:10202000000000000000000000000000C1410000AE
:10203000C141000000000000C14100000F05000088
:10204000C1410000C1410000C1410000C141000088
:10205000C1410000C1410000C1410000C141000078
:10206000C1410000C1410000C1410000C141000068
:10207000C1410000C1410000C1410000C141000058
:10208000C14100000000000000000000000000004E
:10209000C1410000C1410000C1410000C141000038
:1020A000C1410000C1410000C1410000C141000028
:1020B000C1410000C1410000C1410000C141000018
:1020C000C1410000C1410000C1410000C141000008
:1020D000C1410000C1410000C1410000C1410000F8
:1020E000C1410000C1410000C1410000C1410000E8
:1020F000C1410000C1410000C1410000C1410000D8
:10210000C1410000C1410000C1410000C1410000C7
:1021100000000000C141000000000000C1410000BB
:10212000C1410000C1410000C1410000C1410000A7
:10213000C1410000C141000000000000C141000099
:10214000C1410000C1410000C1410000C141000087
:10215000C1410000C141000000000000000000007B
:10216000C1410000C1410000C1410000C141000067
:10217000C1410000C1410000C1410000C141000057
:10218000C1410000C1410000C1410000C141000047
:10219000C1410000C1410000C1410000C141000037
:1021A000C1410000C1410000C1410000C141000027
:1021B000C1410000C1410000C1410000C141000017
:1021C000C1410000C1410000C14100000000000009
:1021D000C1410000C1410000C1410000C1410000F7
:1021E000C1410000C1410000C1410000C1410000E7
:1021F000C1410000C1410000C1410000C1410000D7
:10220000C141000023050000C1410000C1410000A0
:10221000C1410000C1410000C1410000C1410000B6
:10222000C1410000C1410000C1410000C1410000A6
:10223000C1410000C1410000C14100000000000098
:1022400000000000C1410000C1410000C141000088
:10225000C1410000C1410000C1410000C141000076
:10226000C1410000C1410000C1410000C141000066
:10227000C1410000C1410000C1410000C141000056
:10228000C1410000C1410000C1410000C141000046
:10229000C1410000C1410000C1410000C141000036
:1022A000C1410000C1410000C14100000000000028
:0822B000C1410000C141000022
:1022B800F0B503AF2DE9000FADF5257D8B4604463B
:1022C80001F1340038310BF1540203F039FCDBF82A
:1022D800C80004F092F9DBF82801016841F0010117
:1022E8000160DBF82811086820F00200086000206F
:1022F800C1F80801C1F81801C1F828012091C1F8F6
:102308003801DBF8C0A0DAF8000020F00100CAF8B4
:102318000000DAF8000040F40040CAF80000DAF8DB
:10232800000000040CD5DAF80000000444BFDAF815
:1023380000005FEA004003D5DAF800000004EED49C
:102348003F20CAF80800DAF8000020F00100CAF8B7
:102358000000DBF8C460306820F0010030603068AD
:1023680040F4004030603068000409D5306800044B
:1023780044BF30685FEA004002D530680004F2D4F8
:102388003F2040F26341B060306820F001003060C7
:10239800DBF80050DBF85C011F90A86C40F00100EE
:1023A800A864686C08436864686C012161F3830061
:1023B8006864686C20F080006864A86C40F02000B5
:1023C800A864686C40F440406864686C40F44470E9
:1023D8006864A86C40F08000A864A86D000709D064
:1023E800A86D00071CBFA86D5FEA007002D0A86D39
:1023F8000007F2D1A86C40F2634140F02000A864C5
:10240800686C20F440406864686C20F4447000F5FF
:1024180088706864DBF80480D8F8480040F0010050
:10242800C8F84800D8F844000843C8F84400D8F869
:102438004400012161F38300C8F84400D8F844003F
:1024480020F08000C8F84400D8F8480040F0200088
:10245800C8F84800D8F8440040F44040C8F84400A0
:10246800D8F8440040F44470C8F84400D8F848004C
:1024780040F08000C8F84800D8F8580000070CD091
:10248800D8F8580000071CBFD8F858005FEA007059
:1024980003D0D8F858000007EED1D8F84800022138
:1024A8004FF4805240F02000C8F84800D8F84400A3
:1024B80020F44040C8F84400D8F8440020F44470A0
:1024C80000F58870C8F84400DBF87C91D9F8000062
:1024D80040F48030C9F80000D9F8000040F040000E
:1024E800C9F800002220C0F20F00C9F8040040F229
:1024F8006850C0F20C10C9F8200040F29510C0F2E4
:10250800B200C9F82400DC20C0F27A00C9F828001B
:102518007D20C0F25800C9F82C004B20C0F24000C2
:10252800C9F830002F20C0F22E00C9F83400C9F8CD
:10253800380046F62010C9F80C0040F6A310C9F878
:1025480008004FF4C840C9F81C004FF4C860C9F827
:10255800180040F6C410C0F68040C9F810003F20AB
:10256800C9F81400D9F8000061F30100C9F80000A7
:10257800D9F8000020F48030C9F80000D9F87C00B0
:10258800DBF8681121A804F0A5F8DBF89C000F908F
:10259800DBF8A4000A90DBF8A8000690DBF8AC0092
:1025A8000590DBF884010490DBF890010390DBF8D8
:1025B8009801DBE91712029025A804F021F8DBE95D
:1025C8000D10DBF830211E90DBF854001D90DBF86D
:1025D80080000C90DBF8E0001B90DBF8E8001A9014
:1025E800DBF8F0001990DBF8F4001890DBF8F8003D
:1025F8001790DBF8FC001290DBF800011690DBF86E
:1026080004011490DBF808011390DBF80C01119019
:10261800DBF810011590DBF814010E90DBF81801B7
:102628000D90DBF81C011090DBF884000990DBF8B2
:1026380088001C910F2108904FF470400B92A2F86B
:102648008C01A2F88E11DBF834210792A2F88C01D4
:10265800A2F88E11DBF838210192A2F88C01A2F8B9
:102668008E11DBF83C210092A2F88C01A2F88E11A1
:1026780025A906984FF400722062059860620498B4
:10268800A0620398E062029820632098C4E904A637
:10269800DBF8CCA0C4E90000C4E902000F98A061EF
:1026A8000A98E061DBF84C012090DBF850010F90AC
:1026B80004F5A270DBF854B10CF0D2FC1F99009B12
:1026C80001F13400503103F16002C4E9D11004F182
:1026D800D40080E8200303F5907003F1C001C4F82A
:1026E800C4000C98C4F8C8000998C4F8CC0008982D
:1026F800C4F8D0000798C4E92D3300F5907300F1B1
:10270800C00500F16006C4E92300129860650E98C0
:10271800A0651198E0651498206613986066109873
:10272800A0661698E066159820671C98C4E92F21C2
:10273800019960631E9801F1C00EA06301F1600267
:102748001D9801F5907CE0631B98C4E9273104F1DA
:10275800A40320641A9883E806400B9B60641998C8
:1027680003F16002A06403F1C0011898C4E925656B
:1027780003F59075E0641798206504F1E0000D9E5C
:10278800C4E921154021C4F8B0C0C4E91D63C4E9F7
:102798001F320CF00EFC21AE102004F5907CC4F81A
:1027A80040A14ECE8CE84F002098C4F834010F9811
:1027B800C4E94E0B0DF5257DBDE8000FF0BD80B5D1
:1027C8006F4648F68820C2F20000BDE8804001F05C
:1027D800E0BC80B56F4642F2A820C2F22000006833
:1027E80080470020BDE8804006F075B980B56F4687
:1027F800C8B00DF1800BB7EE00CA0BF102000C90C7
:102808001BA845F2000200F10C01089100F1080133
:102818000430069016A8079100F11001059100F107
:102828000E019FEDE98AC2F200029FEDE89A4FF08F
:1028380000089FEDE7DA049100F10C01039100F123
:10284800080104300291019001E0BFF32F8FD2F804
:1028580000A09AF8C8000028F9D00AF1C900D0E809
:102868004F1F0129F1D1C0E8418F0029F7D1BFF3EB
:102878005F8F9AF8C400D8B19AF8C000002800F019
:10288800DF80032840F03F869AF8BC00002800F05B
:10289800DA80032840F03D869AF8B9000AF17405F9
:1028A800002800F0D380032800F0118100F037BE23
:1028B80051460AF1300C7DC9ACE87D0091E87D00F5
:1028C8008CE87D000122DAF83400D0E9000101F03B
:1028D8001F0102FA01F1C0F8881048F69420C2F2EC
:1028E80000000068032822D3572003222C9040F6CA
:1028F800F020C2F2200040F64C312B9010202A9094
:10290800C2F22001CDE92408C52028920B2221908B
:102918000120279240F222322090781EC2F2200233
:102928002991CDE922815946269206F0F4F948F614
:102938009420C2F20000006803282CD346F6A17048
:102948000322C0F2000040F64C313B9040F6703054
:10295800C2F2200028923A903AA82C9040F2CB403C
:10296800C2F220000B222B9010202A90C2F22001E4
:10297800CDE92408CB2021900120279240F2223271
:102988002090781EC2F220022991CDE92281594671
:10299800269206F0C0F948F69420C2F200000068BA
:1029A800032822D3972003222C9040F67C30C2F2D1
:1029B800200040F64C312B9010202A90C2F22001C2
:1029C800CDE92408CC2028920B22219001202792BF
:1029D80040F222322090781EC2F220022991CDE9DD
:1029E80022815946269206F096F948F69420C2F2BA
:1029F8000000006803282ED39F2003222C9040F665
:102A0800C730C2F2200040F64C312B9010202A909B
:102A1800C2F22001CDE92408CD2028920B22219072
:102A28000120279240F222322090781EC2F2200222
:102A38002991CDE922815946269206F06CF90AE0DF
:102A4800DAF860500CE0DAE9194511E0DAF88C1090
:102A5800DAF8B4401DE07D258AF8C080CAF86050D5
:102A680048F688248AF8BC80C2F20004CAE91945ED
:102A780005F0E1FF01468AF8B980CAF8B4402A187F
:102A8800002D18BF511CCAF88C100AF17405CAE948
:102A98001B01504640F8901F80F8288021790029B2
:102AA80000F01F855146012241F8948FA1F1200CB6
:102AB80001F1180381F824200A4642F81C8F8CE89B
:102AC800190041E9052441F80C2CC1E9051105F06C
:102AD800B2FF2E683168401AB0F1FF3F0FDDDAF817
:102AE800A800016800295ED0007B002818BF8AF87A
:102AF800B8809AF8B800002840F0A580CBE0686854
:102B080004682068002840F0CA8441F21C50C2F2D0
:102B18002000016841F2F350C0F200008847804667
:102B280020688946366800281EBFC16860688847E3
:102B38000020C4E9019620612073AE68C4F80080C3
:102B480005F0A5FFBFF35F8F3168002955D0A26853
:102B58008B68D31A50D40B69002B5ED09E684FF057
:102B68000008961B1E4600F19484196900295BD061
:102B78008E68961B5BD40B69002B00F08B849E68D3
:102B8800961B00F18584196900294DD08E68961B23
:102B98004DD40B69002B00F07D849E68961B1E4661
:102BA800E3D500F076BCDAE921508AF8B8800468E9
:102BB80005F06DFFBFF35F8F296800293ED00A69D1
:102BC8008C4207D12A6039E00000000000FF7F47EF
:102BD8000000C84292B3134694422DD0116969B3DC
:102BE8008C421ED00A694AB3944224D0116929B391
:102BF8008C4216D00A69EDE72161346005F052FF76
:102C0800E8684FF080614FF0000804604EF6045009
:102C1800CEF20000016000F042BC4FF0000800F066
:102C280039BC0B46114607E0194600F033BC0E4686
:102C3800194600F02EBC13461A690A6105F032FFE6
:102C48009AF8B80038B3DAE92150046805F01FFF94
:102C5800BFF35F8F2968E1B10A698C4201D12A600C
:102C680017E0B2B11346944211D0116989B18C4270
:102C780009D00A696AB1944208D0116949B18C42F5
:102C880001D00A69EDE70B46114600E013461A69C0
:102C98000A6105F007FFDAF894008AF8B88000287E
:102CA8001EBFC168DAF898008847DAF84C0001219D
:102CB8008AF8C0108AF8BC108AF8B91001687D310A
:102CC8000160DAF84C0044F6D351C1F262010068A1
:102CD800A0FB011291094FF47A7201FB12000E91C8
:102CE800DAF838100F900868016807210160016A56
:102CF800C90709D1016AC90704BF016A5FEAC1713E
:102D080002D1016AC907F2D0426ADAF838000068CD
:102D1800016808210160ADF84020016AC90709D19E
:102D2800016AC90704BF016A5FEAC17102D1016A79
:102D3800C907F2D0D0F824C0DAF838000068016872
:102D48000C21016027F8DECC016AC90709D1016AA4
:102D5800C90704BF016A5FEAC17102D1016AC907E4
:102D6800F2D0416ADAF850900D91ADF84410D9F8D4
:102D78000000042800F2C08309F10406011F26F8A8
:102D8800102099F80E5018BF411CC9F80010052DE5
:102D98000A9218D205F10108291F4FF00A0089F894
:102DA8000E8018BFA0EB48010BEB480064460BF0FF
:102DB800B1FE4FEA4802584631460CF051F9A44694
:102DC80000205DB944E040F08383D6E900124FF05B
:102DD80005083089ADF88800CDE920120C9D012046
:102DE800002606E000210235013640452BF8113057
:102DF8002CD03BF8103001302A46314632F8024CCC
:102E08009C421DD900291480ECD032F8044C9C4215
:102E1800E9D9012922F8024CE4D032F8064C9C4248
:102E280010D9022922F8044CDCD032F8084C9C4214
:102E38000AD922F8064C0439083A4C1CDED1D1E7ED
:102E48000131D0E70139CEE70239CCE74FEA580023
:102E58003BF8102099F8180000EE102AB8EE40AAA6
:102E680070B199ED040A99ED051A3CEE402A22EE5C
:102E7800011A00EE0A1A89ED051AB0EE41AA04E01B
:102E8800012089ED05AA89F81800DAF85480D8F8E5
:102E98000000042800F2308308F10406011F26F818
:102EA80010C098F80E5018BF411CC8F80010052D26
:102EB800CDF824C00B9216D205F10109291F4FF055
:102EC8000A0088F80E9018BFA0EB49010BEB4900E7
:102ED8000BF020FE4FEA4902584631460CF0C0F884
:102EE80000205DB944E040F0F382D6E900124FF0CB
:102EF80005093089ADF88800CDE920120C9D012024
:102F0800002606E000210235013648452BF811302D
:102F18002CD03BF8103001302A46314632F8024CAA
:102F28009C421DD900291480ECD032F8044C9C42F4
:102F3800E9D9012922F8024CE4D032F8064C9C4227
:102F480010D9022922F8044CDCD032F8084C9C42F3
:102F58000AD922F8064C0439083A4C1CDED1D1E7CC
:102F68000131D0E70139CEE70239CCE74FEA590001
:102F78003BF810C098F8180000EE10CAB8EE40BA36
:102F880070B198ED040A98ED051A3CEE402A22EE3D
:102F9800011A00EE0B1A88ED051AB0EE41BA04E0EA
:102FA800012088ED05BA88F81800DAF85880D8F8B2
:102FB8000000042800F2A08208F104060D9926F802
:102FC8001010011F98F80E5018BF411CC8F80010C7
:102FD800052D18D205F10109291F4FF00A0088F8BC
:102FE8000E9018BFA0EB49010BEB490064460BF0AB
:102FF80091FD4FEA4902584631460CF031F8A44693
:1030080000205DB944E040F06382D6E900124FF039
:1030180005093089ADF88800CDE920120C9D012002
:10302800002606E000210235013648452BF811300C
:103038002CD03BF8103001302A46314632F8024C89
:103048009C421DD900291480ECD032F8044C9C42D3
:10305800E9D9012922F8024CE4D032F8064C9C4206
:1030680010D9022922F8044CDCD032F8084C9C42D2
:103078000AD922F8064C0439083A4C1CDED1D1E7AB
:103088000131D0E70139CEE70239CCE74FEA5900E0
:103098003BF8100098F8181000EE100AB8EE400A35
:1030A80071B198ED041A98ED052A3CEE413A23EEE9
:1030B800022A01EE002A88ED052AB0EE420A04E051
:1030C800012188ED050A88F81810F0EE480A27F85B
:1030D800D60CDAE914068DED13AA8DED14BA8DED30
:1030E800150A90ED050A0B9927F8DA1CADF848C0C7
:1030F800DAF84840DAF858500BF0FBFCF0EE490AD1
:103108000BF0E4FCF0EE480AB0EE40AA96ED050A92
:103118000BF0EFFCF0EE490A0BF0D8FCF0EE480A91
:10312800B0EE40BA95ED050A0BF0E3FCF0EE490A63
:1031380094F81880BCEECAEABCEECBFA0BF0C6FCD9
:10314800BCEEC01A48F69420B5EE400AC2F2000060
:10315800F1EE10FAB4EE490A00681FEE106A1EEE8E
:10316800105A11EE109AB8BF4FF00009F1EE10FA9C
:10317800B5EE40BAC8BF4FF6FF79F1EE10FAB4EEDB
:1031880049BAB8BF0026F1EE10FAB5EE40AAC8BF9A
:103198004FF6FF76F1EE10FAB4EE49AAB8BF002553
:1031A800F1EE10FAC8BF4FF6FF75022840F284808E
:1031B80009984FF612428DF86C80A0F2F73080B271
:1031C80090424FF0000038BF01200A99A1F2F73170
:1031D80089B291424FF0000138BF012108430D998F
:1031E800A1F2F73189B291424FF0000115AA38BF18
:1031F800012108438DF8580016A8389047F2BB50B3
:10320800C0F2000046F69361CDE9350214AA379062
:10321800C0F20001CDE9330213A8329046F6F760F8
:10322800A7F1D602C0F200003190CDE92F0212AA10
:103238003991CDE92D02A7F1DA02CDF818B1CDE91F
:103248002B0211AACDE92902A7F1DE02CDE9270256
:1032580010A840F64C32CDE925101BA8249046F65C
:10326800A1700FA9C0F200002390C2F22002CDE99C
:1032780021010EA8209040F61640C2F2200010212D
:103288004590032042900B20419040F22230C2F238
:103298002000449140900020CDE93E103AA9CDE9A4
:1032A8003C024FF483703B9001203A90781E439281
:1032B80005F031FDDAF84840B8F1000F09D00120D7
:1032C80000234FF00008A4F80690A68065802080AF
:1032D800D9E023884FF00008E188A2886088DB07DE
:1032E8004FF00103A4F8008000F0CD8011FA89F1B5
:1032F800ABB2C01AB3B248BF4042D21A4FEA51012A
:103308004FF0010348BF5242282AC0F0BC8093B254
:1033180000EE103A83B201EE103A637EB8EE400A2E
:10332800B8EE411A81EE000A4BB194ED051A01235B
:1033380030EE412A82EE012A62EE0D0A1DE094ED7C
:10334800021AD4E9033630EE011A0133E360B342BE
:1033580084ED021A05D294ED051A0023F0EE480A0E
:103368000BE002EE103A01236376F0EE480AB8EE5D
:10337800422A81EE021A84ED051AADF86810DAF8CF
:103388003010ADF8662001228DF86A30ADF864007F
:10339800CDED180A8DED171A48688DED160A00F064
:1033A8001F00096802FA00F0C1F88C001BA8DAF8BF
:1033B8005C1000F0C3FA48F69420C2F200000068DE
:1033C80002285FD99DF86A0047F2BB5107F8A10CA3
:1033D800C0F20001059846F6F7623890C0F2000284
:1033E800089837913992CDE935100798CDF818B17A
:1033F800CDE933100698CDE931100298CDE92F10A8
:103408000198CDE92D101BA8CDE92B1016A80FA9FE
:10341800CDE929200498CDE9272003220398269096
:1034280046F69360C0F2000042922590A7F1A100F1
:10343800249046F6A170C0F200000B22CDE92101CC
:1034480040F64C3123900EA8209040F65940C2F225
:103458002000C2F22001459010204490CDE93E089A
:103468004FF49E703B900120419240F222323A90F4
:10347800781E4391C2F22002CDE93C813AA94092DC
:1034880005F049FC0123DAF848000376FFF7E3BAB0
:103498001E4626610C6105F005FBE8680460032000
:1034A8008AF8C4008AF8C0008AF8BC008AF8B90013
:1034B80041F21C50C2F22000C16841F2F350C0F240
:1034C8000000884745F20002C2F20002FFF7BFB9C8
:1034D80040F624730020C2F22003294605220BF08F
:1034E8002BF940F6365040F68852C2F22000C2F25C
:1034F8002002A3210BF024FA40F614720521C2F22F
:1035080020020BF0BBF940F62450C2F220000BF069
:103518009DF940F6A850C2F220000BF097F940F64A
:103528009850C2F220000BF091F9F0B503AF2DE9E5
:10353800000FADF22C7D05AC204602F0F0FD0DF237
:103548006C5521464FF4E07228460BF089FD82A89D
:103558002946FEF7ADFE89980DF5FC7CB79B0493D0
:10356800DDE98B618D9A8E9B8CE80F007EA802F0B6
:10357800C4FD814604208390032082904FF47A6032
:10358800CDF860050DF5AC608A4600900DF25450F8
:103598007FA982AB0024012284944FF0010B00F034
:1035A800D4FADDF85405002840F056814EF2100098
:1035B800DDF85855CEF20000016821F001010160E4
:1035C800016841F00401016042F2BF71C0F20901D3
:1035D8004160016841F002010160016841F00101A8
:1035E800016048F68820BFF35F8FC2F20000052112
:1035F80080F804B048F22400BFF35F8FC4F21F00C4
:10360800026861F303020260726842F0100272609D
:103618001022C6F88820D0F8D02222F47042C0F8D0
:10362800D022D0F8E02061F30302C0F8E020D0F8FF
:10363800D42222F47042C0F8D422D0F8E42061F3F6
:103648000302C0F8E420D0F8E42222F47042C0F863
:10365800E422D0F8F42061F30302C0F8F42045F224
:103668000000CDE98244ADF81042C2F20000ADF886
:103678006845CDF86445CDF86045ADF85C45CDF8B2
:103688005845CDF85445006800F1C801D1E84F2FDE
:103698004AB90122BFF35F8FC1E8432FB3B1D1E824
:1036A8004F3F002BF8D040F6F44040F6B843C2F242
:1036B8002000BFF32F8F009040F6C8407BAAC2F2CB
:1036C8002000C2F220032B210BF098F842F264226A
:1036D80042F26C2C42F2E823C2F22002BFF35F8F61
:1036E800C2F2200CC2F2200380E80C1042F26422DD
:1036F800C2F2200242F2F028C26042F21432C2F250
:10370800200242F2C82E42F2AC24039542F28C25E4
:10371800026142F28C2242F2E42B0021029642F22C
:103728007026C2F22008C2F2200EC2F22004C2F2B1
:103738002005C2F2200200F1140380F8C410C0E989
:103748000854C2F2200BC2F2200683E84408012282
:10375800C0E90AE8BFF35F8F80F8C920DDF8642567
:10376800BDF86805ADF8DC01DDF86005CDE9750246
:10377800DDF85825BDF85C05ADF8E801DDF854051D
:10378800CDE97802BDF81002ADF8F401DDE9820256
:10379800CDE97B0242F26420C2F22000039AC0E91C
:1037A800009A42F2A820C2F22000029B026042F274
:1037B800E8220420C2F22002C2E900305022049814
:1037C800CCF800004FF07E50C6E90420BDF8DC01BB
:1037D800A8814FF07A5031803183C6E90211DDE9C2
:1037E800752685E846002976C5E90401A973DDE94F
:1037F8007865BDF8E821A560C4E90016DDE97B65B8
:10380800C4E90401CEE904014CF6CD40C3F64C608E
:10381800A281BDF8F421CBF800102176A1738EF8AF
:1038280018108EF80E10AEF80C20CEE90016CEF85F
:10383800085088F82010C8E9060188F81410C8E96B
:10384800030188F80810C8E9000105F036F90DF2FF
:103858002C7DBDE8000FF0BDDDF8540582ABDDF826
:103868005815DDF85C2507C340F61450C2F2200055
:1038780040F60453009040F6C84082AAC2F22000E5
:10388800C2F220032B210AF0B9FF80B56F46084623
:1038980040F63451C2F220010222BDE8804006F011
:1038A80089BB80B56F4645F200000121C2F20000D5
:1038B8000068BFF35F8F80F8C91080BD80B56F4680
:1038C800B4B005F0F8F848F690200121C2F20000E3
:1038D80001AC01704EF27140CEF20000F02101708F
:1038E8004EF20C10CEF200004FF400310160204679
:1038F800CA210BF05EFB45F20000C2F20000046032
:1039080048F69C2444F20000C2F20004C2F200000F
:10391800A04203D905F0D9F8A04203D9FFF705FE64
:10392800FEF764FF40F6B85040F6E452C2F22000B9
:10393800C2F2200253210BF003F800000A7AA2B168
:10394800B7EE002A91ED003A91ED014A32EE432A92
:1039580022EE042A00EE032A81ED012A0A7D6AB9C3
:103968000122C1ED040A0A7518E0012281ED010A5D
:103978000A72B0EE402A0A7D002AF1D0B7EE003A6A
:1039880091ED034A91ED045A33EE443A23EE053A99
:1039980000EE843A81ED043AF0EE430AB5EE400AAF
:1039A8009FED563AF1EE10FA84BFB5EE401AF1EEEB
:1039B80010FA13D891F82020002A00F08E80B7EE74
:1039C800000A91ED061A91ED074A30EE410A20EE01
:1039D800040A03EE010A81ED070A85E080EE010A78
:1039E800B5EE400AF1EE10FA6ED9B0EE004A9FED3E
:1039F800431AB6EE003AB4EE440AF1EE10FA25DDA9
:103A08009FED3F5A20EE030A31EE051AB4EE440A40
:103A1800F1EE10FA1ADD20EE030A31EE051AB4EEC3
:103A2800440AF1EE10FAC1BF20EE030A31EE051A7E
:103A3800B4EE440AF1EE10FA08DD20EE030A31EE86
:103A4800051AB4EE440AF1EE10FADBDCB4EE430AD0
:103A5800F1EE10FA29D580B56F469FED2A4ABDE8E8
:103A6800804030EE000A31EE041AB4EE430AF1EE5B
:103A780010FA1AD530EE000A31EE041AB4EE430AF1
:103A8800F1EE10FA41BF30EE000A31EE041AB4EE3E
:103A9800430AF1EE10FA08D530EE000A31EE041AA6
:103AA800B4EE430AF1EE10FADBD4BFEE003AB7EEFB
:103AB800004A30EE033A30EE040A33EE033A83EE5E
:103AC800000A31EE000A01E09FED0C0AB1EE403A1F
:103AD80091F82020002A7FF472AF012281ED073A85
:103AE80081F82020B0EE430A80ED002AC0ED010ADB
:103AF80080ED023A80ED030A704700BF0000000025
:103B08001872313F187231BF80B56F46007840F6A1
:103B180054620B4640F6E071C2F22001C2F2200264
:103B280051F8201052F820201846BDE8804006F0D1
:103B38002CBB80B56F46084640F6C271C2F2200120
:103B48001222BDE8804006F020BBF0B503AF2DE996
:103B5800000F93B00C4648F23461C2F20001D7F866
:103B680008B001F212411E4691460123BFF35F8F50
:103B7800D1E84F2FC1E8453F002DF9D1BFF35F8F42
:103B880032B194E80E000EC013B0BDE8000FF0BDCE
:103B980048F234650490C2F200054FF4806128466B
:103BA8000BF007FA04F073FF80462846314600F010
:103BB80051FF20B194E80700049B07C371E248F65F
:103BC8004C202168C2F20000A268056046F200009D
:103BD800C2F2000041F23813C618BFF35F8F56E8EF
:103BE800003F43F0004546E80054002CF7D1002B75
:103BF800BFF35F8F00F18B8248F2000C0124C2F200
:103C0800000C0CF5A063BFF35F8FD3E84F5FC3E8E8
:103C1800464F002EF9D1002DBFF35F8F40F04E8242
:103C28004FF00046CDF80C80566396634FF08046FF
:103C38009663002616600226C1F84061D1F84061FB
:103C4800B6070CD5D1F84061B60744BFD1F840613A
:103C58005FEA867603D5D1F84061B607EED4002531
:103C68000A26C1F840510DF11408C1F8A861D1F82D
:103C7800846126F08076C1F88461D1F84461C1F886
:103C880044610126C1F84851C1F85801CDE90D1227
:103C980041F238110144069000F5865200F5805033
:103CA8000C910621CDE9071040460B91CDE9091288
:103CB8004946CDF83CC08DF84860ADF844501093A3
:103CC800059503F050FC9DF84800012801D105989E
:103CD80039E004F0FDFE044604F0EDFE0598E10726
:103CE80031D1002840F0F5810D98D0F8841021F0EA
:103CF8000041C0F884104FF08071C0F84411D0F82A
:103D0800481121F0807169F31861C0F84811D0F8A2
:103D18008410DBF8002041F08071C0F88410012A7B
:103D280098BF01226FF07F418A4228BF0A46511E80
:103D3800C0F88010D0F8841041F08041C0F8841099
:103D480004F0BBFE2EE0002840F0C3810D98D0F8A7
:103D5800841021F00041C0F884104FF08071C0F841
:103D68004411D0F8481121F0807169F31861C0F846
:103D78004811D0F88410DBF8002041F08071C0F8B9
:103D88008410012A98BF01226FF07F418A4228BF20
:103D98000A46511EC0F88010D0F8841041F08041C6
:103DA800C0F8841048F2045B0420C2F2000B4FF004
:103DB800000C8BF805000BF10C05CBF800C0B8E837
:103DC8004D0029464DC1B8E85D005DC198E85D0029
:103DD8005DC14FF0FF300821CBF8080001208BF8B7
:103DE8000400FF2003220290CDE90021284680210B
:103DF8000022CBF844C003F0D1FF0C46DBF80810D2
:103E0800C00701F10101CBF8081040F08B81DBF805
:103E18000000002840F063819BF80460002906F147
:103E280001008BF8040040F043814FF0FF304FF45D
:103E38000071CBF80800002002220290CDE9002191
:103E480028460021002203F0A9FF8A46DBF8081063
:103E5800C00701F10101CBF8081040F06A81002980
:103E680040F026814FF0FF304FF40079CBF808007E
:103E780002204FF00008CDE90009284680210022E1
:103E8800CDF8088003F08AFFDBF80820C00702F1AC
:103E98000102CBF8082040F04F8148F65020002A54
:103EA800C2F2000080F826100BF1440180F81AA035
:103EB8008A460162416140F2FF31A0F80F104FF0CD
:103EC8000801818181804FF4FA51A0F82E8080F892
:103ED8002D6080F82C80A0F82790A0F82490A0F8F6
:103EE8001B90A0F818908473C0F808A080F806808A
:103EF800016040F0DD804FF0FF304021CBF8080032
:103F08000020CDE90001002102902846012200236B
:103F180003F044FF8946DBF80810C00701F10101EE
:103F2800CBF8081040F01B81002940F0C1804FF009
:103F3800FF304021CBF808000020CDE900018021A6
:103F4800029028460122802303F028FF8846DBF8E8
:103F58000810C00701F10101CBF8081040F00681F4
:103F6800DBF80000002840F0C0804FF0FF30002947
:103F7800CBF8000040F0BF80CBF80800284603F0DB
:103F8800DCFEDBF808000130CBF80800C0F0B9808F
:103F98004FF0FF308121CBF808002846BFF35F8F30
:103FA800CBF84450BFF35F8F02F0CCFB28460121C9
:103FB80002F0C8FB2846822102F0C4FB28460221F1
:103FC80002F0C0FB2846832102F0BCFB28460321EF
:103FD80002F0B8FB2846842102F0B4FB28460421ED
:103FE80002F0B0FB2846852102F0ACFB28460521EB
:103FF80002F0A8FB2846862102F0A4FB28460621E9
:1040080002F0A0FB2846872102F09CFB28460721E6
:1040180002F098FB48F24C564020C2F200060024F9
:10402800B0838421308206F12400C6E92B44C6F807
:10403800B440A6F81F4086F81E80C6F818A0A6F857
:10404800134086F81290C6F80CA034800AF0B1FF2D
:104058004FF0806040F6D471C6E937503220C6F878
:10406800D6000220C4F20000C2F22001C6F8D20035
:104078001020A6F8D00045F62400C2F2DD7086F8BC
:10408800E440C6F8CC000920C6E92F1042F2E171DD
:104098000498C0F20001C6F8C440DDF80C80C0E9FD
:1040A8000041404604F0FEFC13B0BDE8000FF0BD2F
:1040B80040F6A020C2F220000AF01AFB40F6746015
:1040C80040F6D462C2F22000C2F2200220210AF097
:1040D80078FB40F6F450C2F220000AF009FB40F6E3
:1040E800E020C2F220000AF003FB40F6D020C2F222
:1040F80020000AF0FDFA40F6C020C2F220000AF0C3
:10410800F7FA40F6B020C2F220000AF0F1FA40F6C1
:10411800046040F62462C2F22000C2F220021F218D
:104128000AF04FFB40F654708DF81440C2F220009C
:1041380008E08DF814A001E08DF8141040F64470E2
:10414800C2F2200040F6E463009040F6347005AAFD
:10415800C2F22000C2F220030F210AF04FFB40F602
:1041680004708DF81490C2F2200005E040F6F46067
:104178008DF81480C2F2200040F6E463009040F607
:10418800346005AAC2F22000C2F2200320210AF0FE
:1041980035FBF0B503AF2DE9000780464EF210005D
:1041A800CEF200000068C00312D548F68420BFF3A1
:1041B8005F8FC2F2000050E8001F013140E8001292
:1041C800002AF8D1BFF35F8F02E061685046884744
:1041D80004F05DFCBFF35F8F0546D8F800609EB31E
:1041E800D6F8089004F027FCB168401AB0F1FF3FF8
:1041F8006FEA00014FEAD171317317DD3069C8F8F1
:104208000000D6E90010096888470446307B05F0AD
:1042180001008A4604F046FC002CD6D104F00BFCC1
:10422800A0EB0900B0F1FF3FD2DC0AE005F0010085
:1042380004F038FC04F0FFFBA0EB0900B0F1FF3FED
:10424800C6DCBDE80007F0BD2846BDE80007BDE8AC
:10425800F04004F027BCF0B503AF4DF804BD826808
:10426800012A2ED1C3684269934250D20569D0F819
:1042780018C0EC5C0134EC540CF1020494421CD8D4
:104288000CF580739646934238BF9E46A34236D3B8
:10429800AEEB0403052B10D38B7991F807E00E7A67
:1042A80089882B552B199970090A5E7083F804E0E8
:1042B800D9700CF10703934207D902205DF804BBBB
:1042C800F0BD07205DF804BBF0BD944528D2072156
:1042D80005F80C100CF1010191423FBF05226A5408
:1042E800836108203CBF5DF804BBF0BD41F22003A8
:1042F8000846C2F2200311461A460AF0BFFA41F2F4
:1043080030032046C2F2200371460AF015FA41F242
:1043180040041846C2F22004114622460AF0AEFABA
:1043280041F210036046C2F2200311461A460AF011
:10433800A5FA80B56F46002080BD80B56F4680BD68
:1043480080B56F46082080BD80B56F4680BD80B5BA
:104358006F460A46D0E90001BDE8804004F00DBD73
:1043680080B56F460068BDE880400AF0F7BAD0B55E
:1043780002AF82B000228029019207D28DF8041082
:10438800012201A900F049F802B0D0BD4FF6FE7C29
:104398000B46C0F2FF3C8A096CF39F13B1F5006F1E
:1043A8000BD242F0C0018DF805308DF804100222BE
:1043B80001A900F032F802B0D0BD6CF39F124FEAA9
:1043C800113E0024B4EB114F07D18DF805204EF0B3
:1043D800E0018DF8063003220CE08DF80620042257
:1043E8006FF00F0444EA91416CF39F1E8DF807307B
:1043F8008DF805E08DF8041001A900F00EF802B060
:10440800D0BD80B56F4613460A4641F28401C2F218
:104418002001BDE8804005F040BAF0B503AF2DE9B2
:10442800000F83B091460D46D0F8008004F02FFBB2
:10443800D8F80810002940F0F480D8F80C404FF064
:10444800FF31C8F80810012204F21146BFF35F8F4C
:10445800D6E84F1FC6E8432F002BF9D1BFF35F8F73
:1044680061B10124D8F808100131C8F8081004F027
:1044780019FB204603B0BDE8000FF0BDD4F80014C6
:10448800BFF35F8FD4F80424BFF35F8F914204D247
:10449800CB4312EB030A0BD17EE0B1F5806F05D157
:1044A800012A79D9A2F1010A002101E0C1F5806A47
:1044B800D145CDF804A038BFCA460AEB0102214411
:1044C800BFF35F8FC4F80C24524602900846294671
:1044D80000950AF087FB029804F20C4B94F811142B
:1044E800BFF35F8F59B3D4F80014BFF35F8FBFF3E6
:1044F8005F8F5BE8002F4BE80023002BF9D1BFF357
:104508005F8FB1F5806FD4F80834BFF35F8FD4F8AC
:104518000C24BFF35F8F01D08A4203D39A4205D996
:104528004FF48061BFF35F8FC4F80814BFF35F8F47
:10453800C4F800240021BFF35F8F84F81114019997
:1045480089451FD90099A9EB0A0C0123BFF35F8F96
:104558005144D6E84F2FC6E8453F002DF9D1002A2F
:10456800BFF35F8F7FF47DAFD4F80034BFF35F8F64
:10457800D4F80424BFF35F8F934205D2DD43521968
:1045880012D109E000246DE7B3F5806F0AD1012A42
:1045980002D9013A002307E001240021BFF35F8F0D
:1045A80031705FE7C3F58062944538BF6246D01822
:1045B800BFF35F8FC4F80C04E0180AF013FB94F8FB
:1045C8001104BFF35F8F48B3D4F80014BFF35F8FB3
:1045D800BFF35F8F02985BE8002F4BE80023002BA6
:1045E800F9D1BFF35F8FB1F5806FD4F80834BFF30A
:1045F8005F8FD4F80C24BFF35F8F01D08A4203D3B6
:104608009A4205D94FF48061BFF35F8FC4F808144C
:10461800BFF35F8FC4F800240024BEE7002402988B
:1046280020E741F29C00C2F220000AF061F8F0B5E0
:1046380003AF2DE9000F8BB0804648F69420D1F8DF
:104648002090C2F20000006881451FD8D8F8040005
:104658008A46F8B1D8F8001000EB4000DAE909B54D
:104668000C1D860002E00C340C3E0FD02068A842D6
:10467800F9D154F8040C59462A460AF0EDF90028F5
:10468800F1D16068062818BF814505D90BB0BDE88F
:10469800000FF0BDDAE909B50AF12C00049042F2E6
:1046A800B10041F28401C0F2000040F253420A9086
:1046B80004A8099042F29F00C0F2000005AB0890E0
:1046C80002A8079046F64320C0F20000C2F220017B
:1046D800069001A80590C2F22002684603958DE86D
:1046E800000B05F0DAF80BB0BDE8000FF0BD80B59F
:1046F8006F4680BDF0B503AF2DE9000B48F6942254
:10470800D1F80080C2F200021268904503D9002057
:10471800BDE8000BF0BD42681AB30068D1E9019406
:10472800061D02EB4200850002E00C360C3DEED07F
:104738003068A042F9D156F8040C494622460AF0DE
:104748008BF90028F1D1706800218045A0F106009E
:10475800B0FA80F098BF012140090843BDE8000B7A
:10476800F0BD0120BDE8000BF0BDD0B502AF537A13
:10477800012B07D1137A012B02BF90F82C305488F3
:104788009C4200D0D0BD9379212B04BF9288072A80
:1047980028D0088840F002000628F3D1C86809220A
:1047A8000A800068BFF35F8F88B18A7C0C46114687
:1047B800012202F0F3FFA0690068BFF35F8F0028B1
:1047C8001FBFA17F0122BDE8D04002F0E7BF41F240
:1047D800500041F27402C2F22000C2F220022221EB
:1047E8000AF0A8F80A88042A18BFD0BDCA8800238E
:1047F80090F804C0012490F805E0072AC1F8AC300D
:1048080083790068486208460C8081F8283081F86E
:1048180029E081F82AC028BF0722C1F8B020BDE8E6
:10482800D04000F0D5BBD0B502AF84B0537A012B8D
:1048380007D1137A012B02BF90F82C3054889C4280
:1048480001D004B0D0BD9379002B5BD0202B0ED0C3
:10485800222B2CD112780B8802F0010480F82E400C
:10486800C2F34002062B80F82F20EAD14DE0D1F8A0
:10487800B020812A5CD2062A19D991F8282091F80B
:10488800294091F82AE0032A4B6AB1F800C0036076
:104898004FF0000380F804E028BF1A46052C827107
:1048A80038BF2346BCF1060F4371CAD12DE00888F2
:1048B80040F002000628C4D1C86809220A800068AE
:1048C800BFF35F8F98B18A7C0C461146012202F033
:1048D80065FFA0690068BFF35F8F00281FBFA17F35
:1048E800012204B0BDE8D04018BF02F057BF41F222
:1048F800500041F27402C2F22000C2F220022221CA
:104908000AF018F8088806289BD188690368BFF35D
:104918005F8F002BEBD08A7F0020009002A80C4606
:104928001946012303F0E4F90820208004B0D0BD23
:1049380041F22C131146C2F220030020802209F014
:10494800FBFEF0B503AF4DF8048D84B090F82C60F1
:10495800804600250220CDE900050C460846314670
:104968000222022303F061FDC0B2082863D1204669
:10497800314602220223009503F04AFFC0B20828FC
:1049880059D141F2AC022046C2F22002242103236D
:1049980003F0A6FDC0B208284DD140F28972204626
:1049A800C2F220022421022303F09AFDC0B2082893
:1049B80041D10620A7F1160207F8156C242198F8B2
:1049C8002D60032307F8160C204607F8146C03F033
:1049D80087FDC0B208282ED10120A7F1130227F8BD
:1049E800130C20462421032307F8116C03F078FDEB
:1049F800C0B208281FD108F108012046FFF72BFC98
:104A0800C1B2082917D100203146009020460A2259
:104A1800002303F0FDFEC0B208280CD108F12001E4
:104A28002046FFF718FCC1B2082904D108F1140187
:104A38002046FFF710FC04B05DF8048BF0BD80B58C
:104A48006F460021C1858171082181804FF4FA5198
:104A5800016080BDD0B502AF45F204020C46D1E931
:104A68000113C2F200024FF0000CD06082E80A1075
:104A780041F2B001C2F22001104604F0EBF8002820
:104A880001BF216848F69422C2F200021160D0BD2D
:104A9800F0B503AF2DE9000B84B041F2C80048F629
:104AA800482848F24C55C2F220000390C2F2000890
:104AB80008F10800C2F2000502A902902846012266
:104AC80000F032FED5F8DC40814694F83400012825
:104AD80028D12068002840F0B481206A4FF0FF31C7
:104AE8002160D0F84411C90140D54FF08071C0F859
:104AF8004411D0F84421D20140F18A80C0F8441111
:104B0800D0F84421D20142BFC0F84411D0F8442162
:104B18005FEAC2127CD5C0F84411D0F84421D20112
:104B2800E5D475E003F0D4FF064603F0C4FF20681F
:104B3800F10710D1002840F08481206A4FF0FF313E
:104B48002160D0F84411C90116D4D0F88400C043BC
:104B5800C60F00202EE0002840F07381206A4FF035
:104B6800FF312160D0F84411C90136D4D0F884004F
:104B7800C043C60F00204EE04FF08071C0F84411CA
:104B8800D0F84421D20112D5C0F84411D0F84421FC
:104B9800D20142BFC0F84411D0F844215FEAC212E2
:104BA80005D5C0F84411D0F84421D201E6D42068D4
:104BB80001260130206003F080FF98F8000095F886
:104BC800E21002292ED0002865D0D5F8DC5095F8DF
:104BD8003400012834D128684DE04FF08071C0F8C6
:104BE8004411D0F84421D20112D5C0F84411D0F8AC
:104BF8004421D20142BFC0F84411D0F844215FEAF1
:104C0800C21205D5C0F84411D0F84421D201E6D427
:104C1800206801260130206098F8000095F8E2101D
:104C28000229D0D1002878D1D5F8DC0002F0EBFCBD
:104C3800D5F8DC4094F83400012833D1206846E0E8
:104C480003F046FF044603F036FF2868E10712D157
:104C5800002840F0F680286A4FF0FF312960D0F82C
:104C6800841021F00041C0F88410286801302860C1
:104C780003F023FF0FE0002840F0E380286A4FF09C
:104C8800FF312960D0F8841021F00041C0F8841069
:104C9800286801302860002088F8000004B0BDE8CA
:104CA800000BF0BD03F014FF054603F004FF206875
:104CB800E9070CD1002840F0C480206A4FF0FF318A
:104CC8002160D0F84811C90119D400201FE000283C
:104CD80040F0B780206A4FF0FF312160D0F84811CA
:104CE800C90102D40020206014E0D0F8841041F0FB
:104CF8000041C0F884102068013020600AE0D0F834
:104D0800841041F00041C0F8841020680130206010
:104D180003F0D3FE012088F80000D8F81C000168D1
:104D2800BFF35F8F002900F09280002098F82220BE
:104D3800009002A8012349EA0605012402F01BFE9F
:104D4800E8070ED0D8F80400BFF35F8F00F5826142
:104D5800D1E84F2FC1E8434F002BF9D1BFF35F8F44
:104D68001AB104B0BDE8000BF0BDD0F80064BFF381
:104D78005F8FD0F80824BFF35F8FD0F80434BFF3F7
:104D88005F8F934206D19E423EBFBFF35F8F0023E1
:104D9800C0F804349E4228BF32469A4207D1002008
:104DA800BFF35F8F087004B0BDE8000BF0BDD8F802
:104DB8002810D8F804400968BFF35F8F002946D04F
:104DC800D51A98F82E20034402A82E46B5F5007F80
:104DD80028BF4FF40076009602F08AFF9DF808007D
:104DE800012810D194F81004BFF35F8F0028B8D0C1
:104DF80004F20440BFF35F8F50E8001F40E8001240
:104E0800002AF9D114E0039894F81014BFF35F8FC7
:104E18000029A6D0A84238BF054604F20440BFF3D3
:104E28005F8F50E8001F294440E80012002AF8D19B
:104E38000020BFF35F8F84F8100404B0BDE8000BB6
:104E4800F0BD41F20000C2F2200009F051FC41F22D
:104E5800500041F27402C2F22000C2F22002222164
:104E680009F068FDD0B502AF84B00188062911D1D8
:104E780081690968BFF35F8F79B10023827F00934E
:104E880002AB04461846012302F032FF08202080B6
:104E980004B0D0BD072004B0D0BD41F2500041F2AB
:104EA8007402C2F22000C2F22002222109F042FD5F
:104EB800F0B503AF4DF804BD86B0044608880D462A
:104EC800411E032927D3052825D0072832D1D5F834
:104ED800AC00D5F8063069898028D5F80220ADF8ED
:104EE8000C10CDE901236BD8E9680968BFF35F8F1F
:104EF80000295AD0C0F18003AA7C2844009300F10D
:104F0800240304A802F037FD9DF81000C0B39DF8F3
:104F18001100D8B92EE0E8680168BFF35F8F002957
:104F280043D0AA7C04A800260123009602F023FDA2
:104F38002E801FE0E8680168BFF35F8FA9B30020E7
:104F4800AA7C009004A8012302F015FDE868092155
:104F580029800068BFF35F8F38B3A97C012202F073
:104F68001DFCA8690068BFF35F8FF0B1A97F01221B
:104F780002F014FC0420607206B05DF804BBF0BDBA
:104F88000598D5E92B120844C5F8AC009042F1D336
:104F9800DDE901010623BDF80C202B80206061604B
:104FA800228106B05DF804BBF0BD41F2500041F229
:104FB8007402C2F22000C2F22002222109F0BAFCD7
:104FC80041F2FC038021C2F22003802209F0B4FBE5
:104FD800D0B502AF84B00446D0E929C2D0F8AC00FD
:104FE800D4F8B010BCF1000FA38B08BF8022091AB7
:104FF800994238BF0B46191828D2914226D8A16980
:105008000968BFF35F8F39B3A27FBCF1000F00932B
:1050180008BF04F1240C0CEB000302A802F068FEA0
:105028009DF8080080B90398D4E92B120144C4F80C
:10503800AC10914208D30021A28BC4F8A41003211C
:10504800904208BF0221218004B0D0BD41F21C1358
:10505800C2F2200309F070FB41F2500041F27402E1
:10506800C2F22000C2F22002222109F063FCD0B56E
:1050780002AF0446C068092121800068BFF35F8F32
:1050880078B1A17C012202F089FBA0690068BFF316
:105098005F8F00281FBFA17F0122BDE8D04002F02A
:1050A8007DBB41F2500041F27402C2F22000C2F20C
:1050B8002002222109F03EFCF0B503AF2DE90007DC
:1050C80082B01D469146884682468AB108EBC906D9
:1050D8004446D4E900012A464B6A51469847BAF833
:1050E800000040F00200062835D10834B442F0D15F
:1050F800687AA0B3BAF8001041F0020006282AD155
:10510800DAF80C000921AAF800100068BFF35F8FD5
:10511800B0B19AF81210012202F040FBDAF8180038
:105128000068BFF35F8F00281FBF9AF81E10012286
:1051380002B0BDE800071CBFBDE8F04002F02EBB7E
:1051480041F2500041F27402C2F22000C2F2200281
:10515800222109F0EFFB02B0BDE80007F0BD297A73
:10516800A87939B3012912D0022908BF0028C1D172
:105178006988DAF8DC0001F08F0102F05CFABAF80D
:1051880000100429B8D1AAF82400002037E070B331
:105198000A28AFD1BAF800100429ADD1BAF8061020
:1051A800002001228AF82400AAF80020002918BF4C
:1051B80001212CE0E8B306282FD008289AD1BAF8A4
:1051C8000010042998D10122BAF80610AAF8002084
:1051D80000209AF8E220002918BF0121CAE92B0112
:1051E800901EB0FA80F040098AF8240011E0BAF85D
:1051F800001004297FF480AF0020AAF82400BAF830
:1052080006100122AAF80020022928BF0221CAE9B3
:105218002B015046FFF7DCFE6CE769884A46288870
:105228005346CDE900010AF1B400414600F008F9FF
:1052380060E7BAF8001004297FF45EAF9AF8E0003E
:105248000126BAF8063000229AF8E1104000AAF8C0
:105258000060C0B2022B28BF02230843CAE92B23EF
:10526800AAF82400D5E70000F0B503AF4DF8048D87
:1052780084B01D4680468AB101EBC2040E46D6E9C9
:1052880000012A460B6A41469847B8F8000040F0EA
:105298000200062825D10836A642F0D1687A20B344
:1052A800B8F8000040F0020006281AD1D8F80C001F
:1052B8000921A8F800100068BFF35F8F002856D0B6
:1052C80098F81210012202F069FAD8F8180000685C
:1052D800BFF35F8F00284AD098F81E10012202F011
:1052E8005DFA04B05DF8048BF0BD2A7AA8792988A4
:1052F800002A47D0012A10D0022A12D1012868D0EA
:10530800032808BF00290CD169880122D8F8DC00DD
:1053180001F08F0102F042FA83E00B2808BF002950
:105328003FD0B8F8000040F002000628D9D1D8F8DC
:105338000C000921A8F800100068BFF35F8FB0B116
:1053480098F81210012202F029FAD8F8180000681B
:10535800BFF35F8F00281FBF98F81E10012204B00A
:105368005DF8048B1CBFBDE8F04002F017BA41F2AB
:10537800500041F27402C2F22000C2F2200222213F
:1053880009F0D8FA01380828CBD8DFE800F006057C
:1053980037052D0505053E00C3E70129C1D10020C9
:1053A80030E0B8F8000006287FF47AAFD8F8180083
:1053B8000168BFF35F8F0029D9D098F81E2000201C
:1053C800009002A8012302F093FC0820A8F800002E
:1053D80066E70029A5D169880022D8F8DC0001F029
:1053E8008F0102F0DBF91CE0481E80B27F28BFF471
:1053F80098AFD8F8DC0002F0F6F90FE001297FF445
:1054080090AF012088F8E0000BE021B101297FF47A
:1054180088AF022003E098F8E20030B1012088F854
:10542800E2004046FFF71EFD3AE7B8F8000040F0FA
:10543800020106297FF436AF4046FFF718FE2FE732
:10544800F0B503AF2DE900078CB0BE680D460146E4
:1054580098464FF0FF33B0B203EB10200E2800F24D
:105468002B81DFE810F00F005400290029012901E1
:1054780029012901290129012901290129012901D4
:1054880029018900B8F80000042840F0F3800020C2
:1054980080220A908DF82C000690049004A80992A6
:1054A80008F12402B8F80640089203F068F8C0B280
:1054B800082800F0C180DDE0F3B2032B00F2EE8093
:1054C80004220846DFE803F002959298B8F8000035
:1054D800042840F0CF80002080210A9001AA8DF88E
:1054E8002C0002230690049040F20940099108F12B
:1054F8002401ADF8040004A808910321B8F8064077
:1055080002F0EEFFC0B2082800F09680B2E0B8F8CA
:105518000000042840F0AE80002014460A90802243
:105528008DF82C000690049004A8099208F1240232
:10553800B8F80690089202F07FFEC0B2082840F042
:10554800998094B105EBC40604AC4FF0000AD5E984
:105558000001CA6821469047C0B2082840F08A80F6
:105568000835CDF818A0B542F1D104A802F04CFFD7
:105578000A98802830D962E0B8F80000042879D168
:10558800002080210A9014468DF82C000690049083
:10559800019004A8039001A8099108F12401B8F822
:1055A8000690089103F0B4F9C0B2082862D16CB132
:1055B80005EBC40601ACD5E900010A69214690470C
:1055C800C0B2082856D10835B542F4D101A803F075
:1055D800F8F90A98802832D801220021A8F800207A
:1055E800484538BF8146C8E92B1950E001F1080049
:1055F8000C22006830B95FE001F110001422006845
:10560800002859D08A58B8F80010042932D18023CC
:105618000021099308F12403089304AB0A918DF83B
:105628002C100691049101461846B8F8064003F07C
:1056380043F8C0B208281DD10A9880281ED9D8F886
:105648000C000921A8F800100068BFF35F8F00283C
:1056580058D098F81210012202F0A0F8D8F81800D3
:105668000068BFF35F8F00284CD098F81E10012205
:1056780002F094F80CB0BDE80007F0BD012200214B
:10568800A8F80020A04238BF0446C8E92B144046B9
:10569800FFF79EFC0CB0BDE80007F0BD62B1FC68E6
:1056A80005EBC209D5E9000122464B693146984706
:1056B80098BB08354D45F5D1B8F8000040F0020018
:1056C8000628D7D1D8F80C000921A8F800100068DE
:1056D800BFF35F8FB0B198F81210012202F05EF8A4
:1056E800D8F818000068BFF35F8F00281FBF98F82C
:1056F8001E1001220CB0BDE800071CBFBDE8F04039
:1057080002F04CB841F2500041F27402C2F220009B
:10571800C2F22002222109F00DF90A46B8F8001059
:1057280004293FF474AFA5E7F0B503AF2DE9000FE6
:1057380093B00D46D0F8DC10064608A8144602F0CF
:1057480096F896F8E220BDF82010032A0FD1002918
:105758004FF0000018BF03290FD096F8E320042A61
:1057680000F0D081042086F8E22086F8E3000020CB
:10577800DFE801F003113207030013B0BDE8000FA2
:10578800F0BD032086F8E32086F8E200002013B07D
:10579800BDE8000FF0BDD6F8DC0002F011F90020DA
:1057A8004FF48061002C86F8E40086F8E000A6F843
:1057B800E2103080E1D005EBC404083D55F8080F2D
:1057C80069688969884705F10800A042F6D1002078
:1057D80013B0BDE8000FF0BDBDF82200BDF82410DD
:1057E800BDF826200590084340EA02090791069271
:1057F8005FEAC970049400F0D2800798C00748D0C7
:105808003088013807282CD8DFE800F00415082B69
:105818002B2B2B283046FFF7DBFB3AE0F0680068BB
:10582800BFF35F8F002800F07881B17C002201F07F
:10583800B5FF052013E0B0690168BFF35F8F002949
:1058480000F06B810020B27F00900AA8012302F0CB
:105858004FFA9DF82800E0B9032000E000203080CE
:1058680017E0F068092131800068BFF35F8F0028D6
:1058780000F05381B17C012201F090FFB06900680B
:10588800BFF35F8F002800F04881B17F012201F04B
:1058980085FF0698C0070DD10598C0077DD00AA8D6
:1058A8003146FFF705FB9DF83100042875D09DF8B7
:1058B8002FA0F3E0F0680168BFF35F8F002900F0C4
:1058C8002C818020B27C009006F124030AA802F003
:1058D80052F89DF82800012804D19DF829000028D5
:1058E80043D15AE00B99812980F0228108293CD1C3
:1058F800F068D6F8262096F824100392748D01F0EB
:105908001F0296F82580042A006828BF0422BFF3E6
:105918005F8F002800F00181C1F3411301F0800A74
:10592800B17C42EA032B002201F038FFBAF1000FE4
:1059380040F098800399002C00F0A180802C40F260
:10594800D280F068092131800068BFF35F8F00289A
:1059580000F0E380B17C012201F020FFB06900680B
:10596800BFF35F8F049CA0B9D7E0F06809213180AC
:105978000068BFF35F8F002800F0CF80B17C012260
:1059880001F00CFFB0690068BFF35F8F002800F0DA
:10599800C480B17F012201F001FF29F00109E00074
:1059A800B9F1000F0395029047D00498002854D00D
:1059B800DDE90210A0F108054FF0020B012600EB0B
:1059C800010806982C461BEA000F0AD054F8080F65
:1059D80061688A6A3146904704F108004045F5D16C
:1059E8000EE005981BEA000F0AD02C4654F8080F61
:1059F8006168CA6A3146904704F108004045F5D10C
:105A080007981BEA000F0DD066F07F04AA465AF8E3
:105A1800080FDAF804100A6B214690470AF10800CB
:105A28004045F4D129EA0B095FEA094005D0701C0A
:105A38000F2E4FEA4B0B0646C3D3049868B1DDE935
:105A48000210A0F10805441855F8080F6968C969DB
:105A5800884705F10800A042F6D1012013B0BDE83F
:105A6800000FF0BD03990420A6F80AB086F809A033
:105A780086F80880F480C6F80210308004E006201A
:105A880000243080C6F8B040ADF82C40049CADF836
:105A980030B08DF82FA08DF82E800A91BAF1000F42
:105AA80012D0BAF1800F7FF478AFDDE90A120DAB9E
:105AB800BDF83000CDE90D122946ADF83C0030465E
:105AC8002246FFF7F9FA68E7DDE90A1210ABBDF8DC
:105AD8003000CDE910122946ADF84800304622467C
:105AE800FFF7C2FB59E70020F480C6E92B04049CA9
:105AF80070720720A6F80AB086F80880C6F8021067
:105B080030804AE741F23C1041F25812C2F22000BC
:105B1800C2F220021C2108F054FE41F2500041F26A
:105B28007402C2F22000C2F22002222108F002FF11
:105B380041F20C130020C2F22003802208F0FCFD81
:105B4800F0B503AF2DE9000B82B004460068884623
:105B5800416D21F003014165104640F2E24100F039
:105B68008AFDD8F800504FF400504FF4805140227D
:105B78004FF4803300E069612E69B6040ED52E69B2
:105B8800F604F8D52E69B6F1FF3FF5DC2E69F60369
:105B980006D42E69760605D46A61EDE76861EBE7FD
:105BA800AB61E9E740F6B4662146C2F2200600225E
:105BB800304600F060FCB01C2146002200F05BFC7F
:105BC800301D2146002200F056FCB01D214600225F
:105BD80000F051FC06F108002146002200F04BFCC1
:105BE80006F10A002146002200F045FC06F10C00EF
:105BF8002146002200F03FFC06F10E00214600225B
:105C080000F039FC06F110002146002200F033FCB8
:105C180006F112002146002200F02DFC06F11400C6
:105C28002146002200F027FC06F11600214600223A
:105C380000F021FC06F118002146002200F01BFCB0
:105C480006F11A002146002200F015FC06F11C009E
:105C58002146002200F00FFC06F11E00214600221A
:105C680000F009FC2068416989010FD5416921F0DC
:105C780000714161816C41B1816C00291CBF816C4C
:105C8800002902D0816C0029F4D1206841690122E1
:105C980021F0605141612068816962F30D318161B1
:105CA800816C41B1816C00291CBF816C002902D034
:105CB800816C0029F4D12068416941F0007141618B
:105CC800816C41B1816C00291CBF816C002902D014
:105CD800816C0029F4D14FF480502860642028603A
:105CE8004FF4005068602868002809D42868002804
:105CF8005CBF2868002803D42868B0F1FF3FF2DCB5
:105D080020680122016962F302010161816C41B1DD
:105D1800816C00291CBF816C002902D0816C00298C
:105D2800F4D12068416921F4E0514161816C41B1AD
:105D3800816C00291CBF816C002902D0816C00296C
:105D4800F4D12068816941F440218161206841696A
:105D580021F000714161816C41B1816C00291CBF47
:105D6800816C002902D0816C0029F4D1206841F2AD
:105D78006816C2F220060022416941F4407141616F
:105D88003046214600F077FBB01C2146002200F087
:105D980072FB301D2146002200F06DFBB01D21462C
:105DA800002200F068FB2068022541F270160022EC
:105DB800C2F22006816B65F3D84181632068816B4C
:105DC80041F4802181633046214600F054FBB01C29
:105DD8002146002200F04FFB301D2146002200F032
:105DE8004AFBB01D2146002200F045FB206841F225
:105DF80078164FF00309C2F220060022816965F384
:105E0800051181612068816969F39C61816130466F
:105E1800214600F030FBB01C2146002200F02BFB8D
:105E2800301D2146002200F026FBB01D214600222D
:105E380000F021FB06F108002146002200F01BFBC0
:105E48002068172240F63C36C2F22006C16962F388
:105E58000501C16120680022C16941F04001C161AA
:105E68003046214600F007FBB01C2146002200F016
:105E780002FB301D2146002200F0FDFAB01D21462C
:105E8800002200F0F8FA06F108002146002200F08E
:105E9800F2FA06F10A002146002200F0ECFA06F1B7
:105EA8000C002146002200F0E6FA06F10E00214619
:105EB800002200F0E0FA206840F62C1242F210733B
:105EC800416A41F0400141622068416A65F3050179
:105ED800416201201C210090404600F0E0FA40F6A3
:105EE8000510214627F81A0CA7F11A00002200F025
:105EF800C2FA20680E22C16965F38B21C16120684E
:105F080041F28215C2F22005816A69F38811816223
:105F18002068816A62F305018162284621460322CE
:105F280000F0A9FAA81C2146032200F0A4FA281DB3
:105F38002146032200F09FFAA81D2146032200F003
:105F48009AFA05F108002146032200F094FA05F1B7
:105F58000A002146032200F08EFA05F10C002146C2
:105F6800032200F088FA05F10E002146032200F012
:105F780082FA05F110002146032200F07CFA05F1AF
:105F880012002146032200F076FA05F1140021469A
:105F9800032200F070FA05F116002146032200F0F2
:105FA8006AFA05F118002146032200F064FA05F1A7
:105FB8001A002146032200F05EFA05F11C00214672
:105FC800032200F058FA05F11E002146032200F0D2
:105FD80052FA05F120002146032200F04CFA05F19F
:105FE80022002146032200F046FA05F1240021464A
:105FF800032200F040FA05F126002146032200F0B2
:106008003AFA05F128002146032200F034FA05F196
:106018002A002146032200F02EFA05F12C00214621
:10602800032200F028FA05F12E002146032200F091
:1060380022FA05F130002146032200F01CFA05F18E
:1060480032002146032200F016FA05F134002146F9
:10605800032200F010FA05F136002146032200F071
:106068000AFA05F138002146032200F004FA05F186
:106078003A002146032200F0FEF905F13C002146D2
:10608800032200F0F8F905F13E002146032200F052
:10609800F2F905F140002146032200F0ECF905F180
:1060A80042002146032200F0E6F905F144002146AA
:1060B800032200F0E0F905F146002146032200F032
:1060C800DAF905F148002146032200F0D4F905F178
:1060D8004A002146032200F0CEF905F14C00214682
:1060E800032200F0C8F905F14E002146032200F012
:1060F800C2F902B0BDE8000BF0BD80B56F4648F2AA
:1061080048110068C4F21F0105230A6863F30302FB
:106118000A60416841F008014160032180BDF0B583
:1061280003AF2DE9000F81B048F680214FF0010C34
:10613800C2F20001BFF35F8FD1E84F2FC1E843CF10
:10614800002BF9D1BFF35F8F002A01BF48F200018D
:10615800C4F20D010022C4F22F0201BF02F5542C33
:1061680002F5502E02F54C28A1F5004401BFA1F517
:10617800003501F5F61601F5F413C0E9683601BFDC
:10618800C0E96A54C0E96C8EC0E96EC101F5005ED1
:1061980001BF01F5805640F2040CC4F22E0C01F543
:1061A800021401BF0CF5FE7501F5004300F5C07837
:1061B80088E8380001BF00F5C67383E81210C0E90B
:1061C800666EA1F5404C01BF01F5881E01F58618E1
:1061D80001F5841401F5821301BF01F5003602F5BB
:1061E8001025C0E9585600F5B47501BF85E81A4175
:1061F800C0F87CC1A1F5804C02F51C2E01BF02F548
:10620800182802F51424A1F5E03301F5282601BF6A
:1062180001F5EE15C0E9505600F5A47585E818415A
:1062280001BFC0E9562C02F5782802F5742902F559
:10623800702401BF02F56C234CF2000CC4F2070C69
:106248000CF5004601BF01F5E03E01F58E15C0E9E9
:10625800485EC0E94A6101BF00F5987585E81802F3
:10626800C0F83C8101F5482801BF01F5442901F532
:10627800402A01F53C2B01F5382301BF01F53424F0
:1062880001F5302501F52C26C0E9406501BFC0E9BC
:106298004243C0E944BAC0E9469802F5302801BF34
:1062A80002F52C2902F5282A02F5242B02F586137B
:1062B80001BF02F5841402F5821502F58016C0E9C3
:1062C800386501BFC0E93A43C0E93CBAC0E93E9825
:1062D80001F5F01801BF01F59219A1F5503AA1F5A1
:1062E800403BA1F5303301BF01F5901401F58C1541
:1062F80001F58A16C0E9306501BFC0E93243C0E93B
:1063080034BAC0E9369844F2000B01BFC4F2002B3E
:106318000BF500490BF5804A4FF0844801BF01F5A1
:106328006C2601F5682401F56425A1F5C03301BF89
:10633800C0E9283500F1A80383E85009C0E92EA96F
:1063480001BF01F5602801F5E61901F5E81AA1F584
:10635800203601BF0BF5E03301F5582401F554252B
:10636800C0E9205401BF00F1880484E84804C0E96A
:10637800259EC0F89C8001BFA1F5103E01F5FE18CE
:1063880001F5001902F5642A01BF02F5602302F540
:106398005C2602F5582501F5A03401BF00F1600B19
:1063A8008BE87000C0E91B3AC0E91D9801BFC0F82E
:1063B8007CE001F5803E02F540480CF5804901BFBC
:1063C80001F5804A01F5F21344F20806C4F2090601
:1063D80001BF06F1100506F10804C0E91064C0E920
:1063E800125301BFC0E914A9C0E9168E0CF5C03ECE
:1063F80001F5103801BF01F5801901F57C2401F57C
:10640800782302F57C2601BF02F54825C0E9085625
:1064180000F1280585E8180201BFC0E90D81C0F820
:106428003CE002F5442E02F50C2601BF01F5D21519
:1064380001F5242402F54022A1F5803301BFA1F51E
:10644800A031C0E90013C0E9022C103001BF80E878
:10645800704001B0BDE8000FF0BD41F2D21041F22A
:106468000822C2F22000C2F22002352108F062FAA6
:1064780080B56F46FEE780B56F46037840780968B7
:1064880001EB83014000C0B20323D1F868C0834008
:1064980002FA00F02CEA03031843886680BDF0B5C1
:1064A80003AF2DE900078046A1F11B001C2880F0EE
:1064B80088801D4616469A4200F28E80002D00F014
:1064C800968043F200698A46C0F26E192A46A6FBF6
:1064D8000901002308F012FE0AFB09004CF67F119F
:1064E800CDF64111084443F27F61C2F2BE61884291
:1064F8005CD8D7F808C04FF48032D8F800004FF4C1
:1065080080534FF4005100E08167046FE40307D51E
:10651800046FA404F8D4046FE40403D44367F4E7D5
:106528004267F2E79CFAACF141F21832B1FA81F114
:10653800C0F88060C0F89050C2F2200252F82120C2
:1065480041F20436C0F870A0036FC2F2200656F874
:10655800211023F4C0131A430267D0F8702147F6BC
:10656800FF73CFF67F731A404FF4805342EAC1524B
:1065780042EAC131C0F870114FF400514FF4803233
:1065880000E08367066FB6040BD5066FF604F8D4EF
:10659800066FB6F1FF3FF5DC066FF60303D5826799
:1065A800F0E74167EEE7BDE80007F0BD41F2C02023
:1065B80041F2F422C2F22000C2F22002652108F062
:1065C800BFF941F2182041F25C22C2F22000C2F267
:1065D8002002892108F0B4F941F26C2041F2A0228E
:1065E800C2F22000C2F22002672108F0A9F941F2A4
:1065F800B020C2F2200008F01FF980B56F4680BDB8
:10660800F0B503AF2DE9000FADF5057D0DF10409D7
:1066180080464FF40071484608F0CBFC44F2B82A93
:106628000DF5017BC2F2000A00246FF00F055646F3
:10663800DAE96001CDE9830158468294819602F037
:10664800D4F90DF5017C09EB050010350C369CE8F2
:106658000E1001341030B5F5F87F80E80E10E7D140
:1066680001A940464FF4007208F0FAFC0DF5057DCB
:10667800BDE8000FF0BD80B56F46B1F5487F98BF03
:106688004FF4487140F22762914228BF114644F204
:10669800AF73A1F5487100688AB25A43C368A1EB89
:1066A800124189B2490801EB124123F01F0242EA64
:1066B8001111C16004E00168B1F1FF3FD8BF80BD8E
:1066C8000168002905D4016800295CBF0168002918
:1066D800F1D580BDF0B503AF2DE9000B44F2E043DE
:1066E800C4F21F031B68C3F30B2E4FEA135CE64585
:1066F8001FBF0124C1F88841DBB24FF47A781FBF6D
:1067080003FB08F9ACEB0E04D1F8906149F6586523
:106718001FBFCFF6FF7513FB085393FBF4F3C2EAD0
:1067280006021FBFC1F8902180E80A40C0F80C900B
:10673800BDE8000B18BFF0BD41F22C30C2F22000BA
:1067480008F07AF8F0B503AF4DF804BD044690F8A8
:1067580034000D46012801D1206835E002F0B8F96F
:10676800064602F0A8F92068F1072DD1002855D176
:106778004FF0FF3069002060E8B241EAD011A2680A
:10678800C8B2824217D9E26901F00F011268BFF35B
:106798005F8F92B222FA01F1C9070CD0A169814238
:1067A80042D9616900EB800001EB800080680168D4
:1067B80021F0005101602068013020605DF804BBC1
:1067C800BDE8F04002F079B940BB4FF0FF306900F6
:1067D8002060E8B241EAD011A268C8B2824217D953
:1067E800E26901F00F011268BFF35F8F92B222FADB
:1067F80001F1C9070CD0A169814215D9616900EB83
:10680800800001EB80008068016821F00051016080
:106818002068013020605DF804BBF0BD41F23C30D7
:10682800C2F2200007F064FF41F20C42C2F22002DB
:1068380008F024F8F0B503AF2DE9000794B08046BE
:106848000068002840F082804FF0FF30C2464AF8C6
:10685800200B002008210C90CDE9060108F104095D
:10686800089001210390019001A800F1400600F171
:106878001004CDF8409005910AE022F44C0242EA57
:10688800814101F54001C0F8C411059802281FD0C4
:106898002046314601F0B9FAD0B1017C11F07F02EF
:1068A800F3D0DAF80030082A119255D24DB2417C63
:1068B800501EB5F1FF3FC0B203EB8000D0F8C421F1
:1068C800DBDD22F00C0242EA810141F0C001DAE787
:1068D80000200821CDE906010121CDF840900C9057
:1068E80008900591039001900CE0B1F1FF3F06DD9F
:1068F80081680968C1F30A42514601F0C1FB059855
:1069080002281AD02046314601F07FFAA8B1027C4D
:1069180051B212F07F02E8D0DAF80030082A11925A
:106928001AD2013A0029D2B203EB8202D2F8C4216A
:10693800E5D412F08001DBD1E1E7D8F8000001309E
:10694800C8F8000014B0BDE80007F0BD41F23C30C3
:10695800C2F2200007F0CCFE46F6A17041F2DC320C
:10696800C0F2000012A9139011A8129040F622005C
:10697800C2F22000C2F2200207F0E2FFF0B503AF36
:106988002DE9000F83B0D1F800B00A46DBF80010FB
:10699800002940F0D781D2E901514FF0FF33CBF8FD
:1069A8000030D2682B78DBF808405E0046EAD31640
:1069B800F3B29C423CD9DBF81C4006F00F06246871
:1069C800BFF35F8FA4B224FA06F6F60730D0DBF8DF
:1069D80018609E4240F2C2812B785E0635D05E0078
:1069E800DBF8085046EAD316F3B29D4240F2B08174
:1069F800DBF81C5006F00F062D68BFF35F8FADB2B1
:106A080025FA06F6F60700F0A381DBF818609E4227
:106A180040F2AC81DBF8146003EB830306EB830AD6
:106A2800DAF80C60766816F0680F20D0072100E0CD
:106A3800052141700121DBF800200170501CCBF8C2
:106A4800000003B0BDE8000FF0BDDBF80830002BF4
:106A58001FBFDBF81C301B68BFF35F8F5FEAC3738F
:106A68001BD141F25C30C2F2200007F0BDFED946CE
:106A78009AF8104059F820CF04F01F0566B2012497
:106A8800DCF8B831B6F1FF3FD8BF1B0CAC4023404F
:106A98001B0600F0B4800021CBE7DBF81830002B90
:106AA80000F06C81DA4601245AF8203F082A5AF887
:106AB8000C9CD3F8ACE199F8106006F01F0C04FAAE
:106AC8000CF556D315EA0E0453D0D9F80860C3F86C
:106AD800AC51D3F8402142F40052C3F84021D6E922
:106AE8000A25D3F84041A40425D4D3F8402142F420
:106AF8000052C3F84021D6E90A25D3F84041A4043E
:106B08005FBFD3F8402142F40052C3F84021D6E9D0
:106B18000A255CBFD3F840415FEA84440BD4D3F81C
:106B2800402142F40052C3F84021D6E90A25D3F89F
:106B38004041A404CDD5D3F8406126F40056C3F8EB
:106B480040614D6001250A6099F81020DAF80010BC
:106B580053B202F01F02D1F8B861B3F1FF3FD8BFBA
:106B6800360C95402E40360600F095804FF0080808
:106B7800E4E0D9F80C40646814F0680F7FF456AF6D
:106B8800D3F8B84176B2B6F1FF3FD8BF240C254000
:106B98002D067FF480AFB6F1FF3F4FF48036C8BFB3
:106BA80001264FF47F0506FA0CF6C8BFFF252E40D4
:106BB800C3F8BC6199F910304FF4803EDAF80060F0
:106BC8004FF47F04B3F1FF3F03F01F03C4BFFF245A
:106BD8004FF0010E05460EFA03F348462340C6F867
:106BE800783101F0D1FA8046D9F80800514600689A
:106BF800C0F30A42484601F043FA28469EE0BBF833
:106C0800303006F00F04E340DB073FF444AF4FF4A5
:106C180080330290B6F1FF3FC8BF01234FF47F06CF
:106C280003FA05F3C8BFFF263340CCF8BC314FF454
:106C380080309AF910304FF47F04D9F80060B3F12E
:106C4800FF3F03F01F03C4BFFF24012098402040EA
:106C5800C6F87801DAF80C60DAE90130056874687A
:106C6800F669C5F30A48424538BF9046C4F30E4258
:106C7800B21A424538BF9046434538BF9846B8F1E6
:106C8800000F53D0DAF800E008F00302B8F1040F5F
:106C98001ED2002639E04FF48036B3F1FF3FC8BF5B
:106CA80001264FF47F0306FA02F2C8BFFF231A40F9
:106CB800C1F87821D9F80810054648460968C1F393
:106CC8000A42514601F0DCF928464FF0080835E041
:106CD800CDE9002940F2FC7208EA020C4D1C00269E
:106CE8000EEB06041EF80630A81994F8019005F872
:106CF80006900436B445A27800F8013C4270E27868
:106D08008270EDD1DDE90029B6446AB19EF8000031
:106D1800012A885508D031449EF80100022A48709B
:106D28001CBF9EF802008870DAF80800006849461F
:106D3800C0F30A42504601F0A3F902980021C0F8B6
:106D4800048078E641F23C30C2F2200007F0D0FC23
:106D580041F2AC30C2F2200007F046FD41F21C427D
:106D6800C2F220021846314607F088FD41F20C4273
:106D7800C2F220021846314607F080FD41F20C426B
:106D88000020C2F22002002107F078FDF0B503AF21
:106D98004DF804BD84B00468216800296DD1D0E99C
:106DA80001014FF0FF322260A5680378580040EADD
:106DB800D312D0B2854259D991F800C002F00F021F
:106DC800E169012505FA02F20968BFF35F8F0A42FB
:106DD8004CD0A16981425CD9A168814253D9E1694B
:106DE8000968BFF35F8F0A424DD0A169814256D925
:106DF800214600EB800051F8206F51F80C5C05EB40
:106E08008000057C05F07F020192082A4DD26DB200
:106E180005F03F024FFA83FE002D06EB8202D2F8FE
:106E2800C03146BF23F480336CF310436CF3000386
:106E3800BEF1000FC2F8C03118D45FEACC7215D188
:106E48000A68012690F91030002BD2F8B82103F017
:106E58001F0348BF120C06FA03F31A40120605D1A5
:106E680082681268C2F30A4201F00AF92068013008
:106E7800206004B05DF804BBF0BD41F23C30C2F2C2
:106E8800200007F035FC41F2BC30C2F2200007F0C8
:106E9800ABFC41F21C42C2F2200207F0EFFC41F2C7
:106EA8000C42C2F2200207F0E9FC46F6A17041F25A
:106EB800DC32C0F2000002A9039001A8029040F65B
:106EC8002200C2F22000C2F2200207F039FDF0B51C
:106ED80003AF4DF804BD82B004682168002940F072
:106EE800F680D0E9011E4FF0FF33D0E903C22046F7
:106EF80040F8043B0B78DBB14978A5684A0042EAC0
:106F0800D112D3B29D4240F2C580E56902F00F026A
:106F18002D68BFF35F8FADB225FA02F2D20700F0F9
:106F2800B980A169994240F2DE8001200521C7E0BD
:106F38001378A66843F001014D0045EAD315EBB27A
:106F48009E4240F2A780E66905F00F053668BFF358
:106F58005F8FB6B226FA05F5ED0700F09B80A169B0
:106F6800994240F2C0801378A66843F002014D00B0
:106F780045EAD315EBB29E4240F28C80E66905F0F3
:106F88000F053668BFF35F8FB6B226FA05F5ED0731
:106F980000F08080A169994240F2A5801378A66824
:106FA80043F003014D0045EAD315EBB29E4271D977
:106FB800E66905F00F053668BFF35F8FB6B226FAAB
:106FC80005F5ED0766D0A169994240F28C801378E7
:106FD800A66843F004014D0045EAD315EBB29E4282
:106FE80058D9E66905F00F053668BFF35F8FB6B26A
:106FF80026FA05F5ED074DD0A169994273D91378A2
:10700800A66843F005014D0045EAD315EBB29E4250
:1070180040D9E66905F00F053668BFF35F8FB6B251
:1070280026FA05F5ED0735D0A16999425BD91378A1
:10703800A66843F006014D0045EAD315EBB29E421F
:1070480028D9E66905F00F053668BFF35F8FB6B239
:1070580026FA05F5ED071DD0A169994243D91278A2
:10706800A56842F007014B0043EAD212D3B29D4211
:1070780010D9E56902F00F022D68BFF35F8FADB23A
:1070880025FA02F2D20705D0A16999422BD901202D
:10709800032115E0E26ABEF800309A4203D3D21AFF
:1070A800A66AB24202D20120042109E0E2620D463A
:1070B8009CF80060009600F065FF70B1002029463A
:1070C80022680132226002B05DF804BBF0BD41F2D3
:1070D8003C30C2F2200007F00BFB41F26C30C2F2E8
:1070E800200007F081FB41F21C421846C2F2200240
:1070F80007F0C4FBF0B503AF2DE9000F83B00E68AD
:107108003268002A40F00082D1E9015ECC684FF075
:10711800FF3131602978B2684B0043EAD111CBB214
:107128009A4272D9F26901F00F011268BFF35F8FBA
:1071380092B222FA01F1C90767D0B169994240F2C7
:10714800EF8129784A0662D04B0043EAD111B26830
:10715800CBB29A4240F2DE81F26901F00F01126867
:10716800BFF35F8F92B222FA01F1C90700F0D28112
:10717800B169994240F2E181716903EB830201EB45
:107188008209D9F80C10496811F0680F54D1B0463B
:1071980099F8102058F820CF02F01F0355B20122A9
:1071A800DCF8B811B5F1FF3FD8BF090C9A4011407F
:1071B800090657D102904FF48030B5F1FF3FC8BFA0
:1071C80001204FF47F0100FA03F0C8BFFF210840F7
:1071D800CCF87801D9E9010109684FEA114A6FF33F
:1071E800DF2A544538BFA246504538BF8246BAF117
:1071F800000F00F0C280D9F800400AF00302BAF18B
:10720800040F67D2002123467CE005212BE0B168FA
:107218000229C0F08C81F1690968BFF35F8F890783
:1072280040F18581B169012940F28E8171690A6A4C
:10723800526812F0680F01D0072114E0B14691F8A6
:10724800242059F820CF02F01F0A53B20122DCF89B
:10725800B85102FA0AF2B3F1FF3FD8BF2D0C2A4009
:1072680012060AD000214170012132680170501CB9
:10727800306003B0BDE8000FF0BD02904FF48030DD
:10728800B3F1FF3FC8BF01204FF47F0200FA0AF0B4
:10729800C8BFFF221040CCF8780101F11408D1E9E9
:1072A800060109684FEA114A6FF3DF2A544538BFCF
:1072B800A246504538BF8246BAF1000F00F0BF80A1
:1072C800D8F800400AF0030CBAF1040F5FD200218D
:1072D800234676E00EF101032AF0030B0021019208
:1072E8005D185A5C15F8010C95F801C0AD7860542A
:1072F8006018043142708B4580F802C0C570EFD128
:10730800019A631862B11EF80100012A187007D0AB
:107318000EEB0100022A417859701CBF80789870E2
:10732800AAF10100012101EB501505F0030B01F052
:10733800C6FB4EF6707024F01F01CEF20000BAF1C1
:10734800610F0ED325F0030201F1200301600360F1
:1073580001F14003036001F160038031043A0360E6
:10736800F2D1BBF1000F1CBF0160BBF1010F40F06F
:10737800B98001F0A4FB01F0A5FB484641465246FE
:1073880000F07EFE0298C0F804A000216DE70EF11F
:1073980001032AF0030B0021CDF804805D185A5C24
:1073A80015F8010C95F80180AD7860546018043127
:1073B80042708B4580F80280C570EFD1DDF80480FB
:1073C8006318BCF1000F0ED01EF80100BCF1010FCC
:1073D800187008D00EEB0100BCF1020F417859700B
:1073E8001CBF80789870AAF10100012101EB5015AB
:1073F80005F0030B01F063FB4EF6707024F01F01DB
:10740800CEF20000BAF1610F0ED325F0030201F1AC
:1074180020030160036001F14003036001F1600390
:107428008031043A0360F2D1BBF1000F1CBF016048
:10743800BBF1010F5FD101F042FB01F043FB404675
:107448004946524600F01CFEB06800281FBFF0698C
:107458000068BFF35F8F5FEAC07005D141F28C30DE
:10746800C2F2200007F0C0F9B0690028029872D073
:10747800D6F814C00121326A9CF81030D2F8B8410D
:107488005DB203F01F03B5F1FF3FD8BF240C99404C
:10749800214009067FF477AF4FF48031B5F1FF3F03
:1074A800C8BF01214FF47F0401FA03F1C8BFFF24CC
:1074B8002140C2F8BC119CF910104FF480304FF4F1
:1074C8007F05D9F80020B1F1FF3F01F01F01C4BFCB
:1074D800FF250120884049462840C2F878016046C7
:1074E80000224DE701F120020260BBF1020F1CBF30
:1074F800403101603DE701F120020260BBF1020F5B
:107508001CBF4031016096E741F23C30C2F22000D6
:1075180007F0EEF841F2CC30C2F2200007F064F92F
:1075280041F21C421846C2F2200207F0A7F941F2C4
:107538007C30C2F2200007F057F941F20C4218469D
:10754800C2F2200207F09AF941F20C420120C2F27D
:10755800200207F093F941F20C420020C2F2200207
:10756800002107F08BF9F0B503AF4DF804BD0446D0
:1075780090F834000D46012801D1206829E001F077
:10758800A7FA064601F097FA2068F10721D10028EA
:1075980001BF206A4FF0FF312160D0F8481101BFC8
:1075A80021F0410165F3000165F38611C0F8481127
:1075B80001BF2068013020605DF804BB04BFBDE84E
:1075C800F04001F07ABA41F23C30C2F2200007F0F4
:1075D8008FF8002801BF206A4FF0FF312160D0F8F2
:1075E800481101BF21F0410165F3000165F38611DF
:1075F800C0F8481101BF2068013020605DF804BB65
:1076080008BFF0BDDFE790F83410012908BFFFF785
:1076180011B9B0B502AF044601F05AFA054601F0B7
:107628004AFA2046FFF706F9E807BDE8B04018BF58
:10763800704701F042BAF0B503AF4DF804BD84B00D
:10764800044690F834000D46012801D1206845E031
:1076580001F03EFA064601F02EFA2068F1073DD106
:107668006FF00041884275D201302060E8B26900AD
:1076780041EAD011A268C8B2824271D9E26901F028
:107688000F011268BFF35F8F92B222FA01F1C907A6
:1076980066D0A169814269D9626900EB8000216ADC
:1076A80002EB8000007C00F07F020192082A63D27E
:1076B80040B200F03F02002801EB8201D1F8C0512E
:1076C8002168A1F10101216048BF2D0C01F0F5F9F5
:1076D80005F0010004B05DF804BBF0BD6FF0004197
:1076E800884237D201302060E8B2690041EAD011FF
:1076F800A268C8B2824233D9E26901F00F01126868
